:100000000C94B2040C94ED050C94CF040C94CF0422
:100010000C94CF040C94CF040C94CF040C94CF0414
:100020000C94CF040C9440050C94CF040C94CF0492
:100030000C94CF040C94CF040C94CF040C94CF04F4
:100040000C94CF040C94CF040C94CF040C94CF04E4
:100050000C94CF040C94CF040C94CF040C94CF04D4
:100060000C94CF040C94CF040000000000000000AA
:10007000000000000000A8000000000000C92100EE
:100080000000DFDBD4D6220000D1D7C2D33BB900B9
:100090000020CCC0C5CA250000D2C8D0CFCD3A00C0
:1000A0000000DCCEC33F2A0000C1CBD8D9292800EC
:1000B00000DE2CC4C6C75F000000DD00D52B0000A9
:1000C00000000DDA002F00000000000000007F009B
:1000D0000031003437000000302E323536381B0036
:1000E000002B332D2A390000000000000000000022
:1000F000000000000000B8000000000000E931002E
:100100000000FFFBF4F6320000F1F7E2F3343300B5
:100110000020ECE0E5EA350000F2E8F0EFED360013
:100120000000FCEEE337380000E1EBF8F93039006D
:1001300000FE2EE4E6E72D000000FD00F53D000086
:1001400000000DFA005C00000000000000007F00CD
:100150000031003437000000302E323536381B00B5
:10016000002B332D2A3900000000000000000000A1
:100170000000000000007E0000000000005121008F
:1001800000005A534157400000435844452423007F
:100190000020564654522500004E424847595E0002
:1001A00000004D4A55262A00003C4B494F292800A3
:1001B000003E3F4C3A505F00000022007B2B0000C5
:1001C00000000D7D007C00000000000000007F00AA
:1001D0000031003437000000302E323536381B0035
:1001E000002B332D2A390000000000000000000021
:1001F00000000000000060000000000000713100FD
:1002000000007A73617732000063786465343300EC
:100210000020766674723500006E62686779360079
:1002200000006D6A75373800002C6B696F3039003B
:10023000002E2F6C3B702D00000027005B3D00005E
:1002400000000D5D005C00000000000000007F0069
:100250000031003437000000302E323536381B00B4
:10026000002B332D2A3900004F6B000000000000E6
:10027000000000000000000000000000453A457248
:10028000726F72000000000000000000000000001B
:10029000453A616C6C6F63206D656D000000000075
:1002A00000000000453A474F535542207374616384
:1002B0006B206F76666C0000453A52455455524E9D
:1002C00020772F6F20474F5355420000453A464F45
:1002D00052206C696D697473206F766600000000AF
:1002E000453A4E45585420772F6F20464F52000014
:1002F00000000000453A476F746F20746F206E6FE6
:100300007768657265000000496E74657272757079
:100310007465640000000000000000004D6F72650D
:100320003F0000000000000000000000000000008E
:10033000436F6D6D616E647300000000000000008B
:100340000000000046756E6374696F6E73000000F4
:10035000000000000000000053544F500000000057
:100360000000000000000000000000003C416C7430
:100370003E0000000000000000000000000000003F
:100380006202B96303B76311B86602E46712E867F3
:1003900002E76801BA6902E26912E16C02ED6C12CF
:1003A000C06C01B16C13B36D03B66E01B26E02E5A1
:1003B0006F02C17012EE7002E07202EC7212E9720A
:1003C00001B07301B57312EA6904F16914F27204A1
:1003D000F3200000494E000000000000F14E000034
:1003E000000000494E4B4559000000F2000000009B
:1003F0000000524E440000000000F3000000000026
:1004000000000000000000000000000000000000EC
:100410005052494E54000000E04D3F00000000499A
:100420004E505554000000E15600000000004946BF
:10043000000000000000E2451143000000474F5457
:100440004F00000000E7450000000000464F52004A
:1004500000000000E4563D451045004E455854004C
:10046000000000E5560000000000474F53554200D1
:100470000000E845000000000052455455524E006F
:1004800000E900000000000052454D00000000009F
:10049000EC4100000000004C45540000000000ED5D
:1004A000563D450000004C4F434154450000C045B7
:1004B0002C450000004245455000000000B9452C85
:1004C000450000004F55540000000000C14E2C456F
:1004D00000000053544F5000000000EA00000000EC
:1004E00000005041555345000000EE45000000005B
:1004F0000048454C5000000000BA3F0000000000DA
:1005000052554E0000000000B00000000000004DF9
:10051000454D0000000000B6000000000000434C04
:10052000530000000000B7000000000000434C45ED
:100530004152000000B80000000000004C49535434
:1005400000000000B16E00000000004E45570000A2
:10055000000000B20000000000004C4F41440000C9
:100560000000B35300000000005341564500000056
:1005700000B5530000000000000000000000000073
:1005800000000000000000E3EE7BE1D4D4E3C89B50
:10059000BDF7B2EBA8709F7D960C8E13868C7E1BE8
:1005A0001A1D28292A2B2D2F3C3D3E003E3D0000E0
:1005B000001A3C3D0000001B3C3E0000001D544F53
:1005C000000000105448454E0011000000000000DB
:1005D0002020204156522042415349432076302E5C
:1005E000310A2843296F6C65677665646940676DD9
:1005F00061696C2E636F6D0A6D61782070726F6730
:1006000072616D2073697A653A0A31323030206246
:100610002E206F7220323535206C6E2E0A6C697375
:1006200074206F6620636F6D6D616E64733A0A4863
:10063000454C50205B637C665D00000000000000BC
:10064000005F00000007000700147F147F14242AB5
:100650007F2A124C2C10686436495522500005033D
:100660000000001C2241000041221C0014083E082A
:100670001408083E08080000503000101010101038
:10068000006060000020100804023E5149453E0011
:10069000427F400042615149462141454B31181487
:1006A000127F1027454545393C4A494930017109B7
:1006B00005033649494936064949291E00363600A0
:1006C00000005636000008142241001414141414BB
:1006D00000412214080201510906324979413E7E47
:1006E0001111117E7F494949363E414141227F41E6
:1006F00041221C7F494949417F090909013E41497D
:10070000497A7F0808087F00417F41002040413F2F
:10071000017F081422417F404040407F020C027F4D
:100720007F0408107F3E4141413E7F090909063E92
:100730004151215E7F091929464649494931010144
:100740007F01013F4040403F1F2040201F3F403875
:10075000403F631408146307087008076151494556
:1007600043007F41410002040810200041417F0006
:100770000402010204404040404000010204002005
:10078000545454787F4844443838444444203844CE
:1007900044487F3854545418087E0901020C5252C0
:1007A000523E7F0804047800447D40002040443DD0
:1007B000007F1028440000417F40007C041804782A
:1007C0007C0804047838444444387C141414080821
:1007D0001414187C7C080404084854545420043F22
:1007E0004440203C4040207C1C2040201C3C4030A9
:1007F000403C44281028440C5050503C4464544C15
:1008000044000836410000007F0000004136080027
:100810000804081008FFFFFFFFFF04060706041086
:10082000307030107C1211127C7F494949317F4968
:100830004949367F01010101603F213F607F4949FD
:10084000494177087F087722414949367F100804DB
:100850007F7E1009047E7F08142241403E01017F03
:100860007F020C027F7F0808087F3E4141413E7FA6
:100870000101017F7F090909063E41414122010131
:100880007F0101074848483F0E117F110E6314088D
:1008900014633F20203F60070808087F7F407E40A8
:1008A0007F3F203F207F017F4848307F4830007FD6
:1008B000007F484830224149493E7F083E413E463C
:1008C0002919097F20545454783C4A4A4A317C54AF
:1008D0005428007C04040C00603C243C60385454D0
:1008E00054186C107C106C00445454287C20100860
:1008F0007C7C2112097C7C10284400403804047C54
:100900007C0810087C7C1010107C38444444387CEF
:100910000404047C7C141414083844444400040483
:100920007C04040C5050503C08147C1408442810DB
:1009300028443C20203C600C1010107C7C407C4003
:100940007C3C203C207C047C5050207C5020007C4F
:10095000007C50502028445454387C103844384887
:100960005434147C11241FBECFEFD8E0DEBFCDBFBE
:1009700011E0A0E0B1E0EAE7FAE402C005900D92D0
:10098000A830B107D9F716E0A8E0B1E001C01D9288
:10099000AB36B107E1F70E94071D0C943B250C9480
:1009A000000090910806803F19F46095692301C00A
:1009B000692B6093080608958EEB95E09093C5052A
:1009C0008093C4059093C7058093C6051092C30514
:1009D0000895E9E6F0E080818260808380818E7FE7
:1009E00080831092C9058BE08093C8051092CB05D7
:1009F0000895E898539852985B985A980E94DC049E
:100A00000E94E9041092CA05E0E7F0E0808181606D
:100A10008083E89A08958091C3058823E1F3E091EB
:100A2000C405F091C505CF0101969093C50580934B
:100A3000C405E081835C954030F08EEB95E09093A7
:100A4000C5058093C4058091C30581508093C3057B
:100A500090910806892F8470F0E093FF08C08823E6
:100A600019F0E859FF4F0AC0E851FF4F07C088232B
:100A700019F0E859FE4F02C0E851FE4F84910895E5
:100A80001F920F920FB60F9211242F933F934F9303
:100A90005F936F937F938F939F93AF93BF93EF93E6
:100AA000FF93F8941092B1001092B2000E94E904F2
:100AB0007894FF91EF91BF91AF919F918F917F912A
:100AC0006F915F914F913F912F910F900FBE0F90BB
:100AD0001F901895CF93E89852985398529AE0EE49
:100AE000F1E03197F1F7539AE0E5F0E03197F1F753
:100AF0005298E8ECF0E03197F1F71092B20097E0ED
:100B00009093B10030E090E041E04A9B04C0209116
:100B1000B1002111FACF983068F4582F51702AB1E2
:100B200080FF02C0277F01C028602AB951113427F5
:100B300086952AC0983041F42AB130FD02C0277F43
:100B400001C028602AB920C0539852989A30E1F425
:100B50004B9B04C08091B1008111FACF8091B1000C
:100B60004B9B06C04A9B04C09091B1009111F8CFF5
:100B70009091B100992391F0C1E0811110C00EC095
:100B80002091B100222311F04A9BFACF2091B100AD
:100B9000222321F09F5F9B3008F4B7CFC0E0539829
:100BA00052980E94E9040E94DC0481E08CBBE89A20
:100BB0001092B100CC2369F088EC90E00197F1F736
:100BC0008091C305882329F00E940B0591E08A3F9C
:100BD00009F090E0892FCF9108951F920F920FB6E0
:100BE0000F9211242F933F934F935F936F937F93B3
:100BF0008F939F93AF93BF93EF93FF931092B200A5
:100C000087E08093B1008091C90581111DC080915A
:100C1000C8058B3080F48091C805833060F08091E6
:100C2000CB0586958093CB054B9B05C08091CB056A
:100C300080688093CB058091690081608093690012
:100C400081E08093C9056FC0809169008E7F809399
:100C500069001092C9058091C80581508093C8052C
:100C60008091C80581115FC02091CB05203E18F00E
:100C70002093CA0553C0243111F128F4213119F110
:100C8000223129F12CC0283519F0293501F127C06E
:100C90008091CA05803F01F18DEE0E946A05809126
:100CA000080683FF05C0877F8093080680E004C0A4
:100CB00088608093080685E00E946A050DC08091D7
:100CC000CA0562E007C08091CA0561E003C0809157
:100CD000CA0564E00E94D1041092CA051FC0809129
:100CE000CA058111F9CF27FD19C0E091C605F09121
:100CF000C705CF0101969093C7058093C605208351
:100D0000835C954030F08EEB95E09093C70580931F
:100D1000C6058091C3058F5F8093C3051092CB05F4
:100D20008BE08093C8051092B20087E08093B100F9
:100D3000FF91EF91BF91AF919F918F917F916F91B3
:100D40005F914F913F912F910F900FBE0F901F9089
:100D5000189560E00C94F512CF93DF93EC01899124
:100D6000882319F00E94A906FACFDF91CF91089548
:100D70000F931F93CF93DF9300D000D000D0CDB757
:100D8000DEB79F938F9384E091E09F938F938E01C2
:100D90000F5F1F4F1F930F930E943022C8010E94C4
:100DA000AC060F900F900F900F900F900F9026961B
:100DB0000FB6F894DEBF0FBECDBFDF91CF911F916C
:100DC0000F9108950F931F93CF93DF93CDB7DEB7A5
:100DD000AC970FB6F894DEBF0FBECDBF8C01CE012D
:100DE00001960E942518811121C0C8010E949719FF
:100DF00081111CC010923F06AE01455D5F4F60E05F
:100E000078E080E090E00E94351B182F80E20E947D
:100E1000A90680913F0690E00E94B80680E090E02D
:100E20000E94251881E0111101C080E0AC960FB638
:100E3000F894DEBF0FBECDBFDF91CF911F910F9110
:100E4000089580E09091C305911103C0833631F07D
:100E500008958111FBCF0E940B05F4CF90910806F5
:100E600091FF0DC0A8952BE088E190E00FB6F894B3
:100E7000A895809360000FBE20936000FFCF089577
:100E80008DE00C94A90661E08091CF050C94F512D9
:100E90001092E7050C948A12CF92DF92EF92FF92A4
:100EA000CF93DF939C01E62FE05DE83708F055C053
:100EB0008E2F6CE00E9413209CE0899FE019112482
:100EC000F0E0EE0FFF1FE957FA4F45915491882348
:100ED00039F0815062E0882321F0660F8150FBCF0A
:100EE00061E070E0CA010E941F20EB01A8EEB3E0B0
:100EF0000E94F91F9E0140E050E00E9447206901D6
:100F00007A019E0136952795209AA0EABFE00E94BB
:100F1000F91F28EE33E040E050E00E944720C11462
:100F2000D104E104F104C1F0289A2115310511F42E
:100F300000C003C0C9010197F1F7289821153105B8
:100F400011F400C003C0C9010197F1F781E0C81A8C
:100F5000D108E108F108E3CF2098DF91CF91FF900D
:100F6000EF90DF90CF900895CF930E94DC040E9411
:100F70002107C82F8823D9F36EE18AE090E00E9410
:100F80004C078C2FCF910895CF93DF93EC01FE0196
:100F90008491882321F00E94A9062196F8CFDF9141
:100FA000CF91089598E028E030E087FD02C02B98AB
:100FB00001C02B9A880F2D9AF9013197F1F72D98DE
:100FC000915099F708952B9A98E080E024E030E062
:100FD0002D9AF9013197F1F7880F1C9981602D98AE
:100FE000F9013197F1F7915099F7089597B193600E
:100FF00097B998B1936098B998B18095892388B9C9
:101000000895FF920F931F93CF93DF93C82FD42F90
:10101000152F062FF72E87FF09C040E050E0BA01D8
:1010200087E70E940108823060F5CF7780E00E9458
:10103000F6070E94E30782E00E94F6070E94E3079A
:101040008C2F0E94D2078F2D0E94D207802F0E94E2
:10105000D207812F0E94D2078D2F0E94D207C03461
:1010600021F0C83421F081E003C085E901C087E8A0
:101070000E94D207C4E60E94E30787FF02C0C15066
:10108000D1F7DF91CF911F910F91FF90089587E6DF
:1010900090E00E94651585B1886185B92D9884B16D
:1010A000886284B9249880E00E94F6070E942E127C
:1010B0008FEA0E94211287E00E949B1285EA0E941B
:1010C00021120E948A1282E390E00E94C41684EAF0
:1010D0000E9421120E94F90478940895811102C09F
:1010E0000C94781580E00895811103C0862F0C942C
:1010F0006F150895CF93C82F611107C00E94400754
:1011000080913F0690E00E94B8068AE30E94A906FB
:1011100024E1C29FC001112488599D4FCF910C94A6
:10112000C407E8E0F1E080E090E04081442351F022
:10113000242F2F7730E047FD02C0820F931FE20F6C
:10114000F31FF3CF08959FEF980F9E3788F5E8E0DF
:10115000F1E040E050E0682F70E090819923C1F009
:10116000A92FAF772A2F30E0420F531F97FF0DC0F2
:101170006217730714F0A11102C0A1931BC0DF0115
:10118000A20FB31F9C91903819F0E20FF31FE5CF27
:10119000282F30E0420F531F403B54404CF48F5FE8
:1011A0008083DF01A20FB31F11961C92319602C0FB
:1011B000E0E0F0E0CF010895FC013197892B59F070
:1011C0008081DF01A80FB11D9C91911102C0108296
:1011D0000895806880830895E091BA05F091BB0579
:1011E000309771F09281981738F0891748F461119F
:1011F00007C0E0E0F0E004C00190F081E02DF0CF06
:10120000CF01089560E00E94EC08009761F1209101
:10121000B8053091B9058217930721F41092B905EA
:101220001092B805E091BA05F091BB058E179F07A3
:1012300071F4DC012D913C913093BB052093BA05EC
:101240000EC0208131812817390721F0F90130972C
:10125000C1F705C0DC012D913C91318320830E94B0
:10126000DC0881E0089580E008958D5F0E94A30866
:10127000FC01009719F011821082089560E082E06D
:101280000E947A0880E090E00895DF92EF92FF924A
:101290000F931F93CF93DF937C01D62EFC01019017
:1012A0000020E9F7CF018E190E943509EC01009763
:1012B00091F1E091BA05F091BB053097E1F000E0C3
:1012C00010E082818D1108C080819181998388838B
:1012D000CF010E94DC080CC0D81618F4F983E8830B
:1012E00007C0808191818F01009711F0FC01E9CF47
:1012F0000115110529F4D093BB05C093BA0503C0AD
:10130000F801D183C083DA82B701CE0103960E942F
:101310002122CE0102C080E090E0DF91CF911F91A9
:101320000F91FF90EF90DF9008950E944807109270
:101330000906EAE0F6E01192119286E0EE33F80732
:10134000D1F708950E949509109208011092BB05EB
:101350001092BA050895FC01CF012191222319F0C2
:101360002613FACF02C080E090E00895282FFC01F8
:101370008E2F821BDF019191992321F09613F8CFD4
:101380004C93089580E00895FC012081818190EDC7
:10139000920F9731A8F42A3310F099EC920F20EDB8
:1013A000280F273128F48A3328F029EC280F02C0AF
:1013B000292F90E0F0E19F9FC0011124822B089516
:1013C00080E00895FC019081892F82958F7020E143
:1013D000829F901911248A3010F0895C01C0805DD1
:1013E0009A3010F0995C01C0905D808391831282E5
:1013F000089590E0E92FF0E0E156FA4FE491EE23F2
:1014000021F0E81791F09F5FF5CF9FEB980F9A318D
:1014100070F090ED980F9A3020F0803F20F084E03B
:10142000089583E0089580E0089581E0089582E0C2
:1014300008959091080691709295907F7091E705BC
:1014400060E0462F50E09A01220F331F240F351F12
:10145000F901EE57FC4F44914423A1F0F901E05803
:10146000FC4FE491E8130CC0F901EF57FC4F2491B5
:10147000322F372329F0207F291302C0842F0895AB
:101480006F5FDFCF80E0089590E046E0499F9001D4
:101490001124F901EF54FA4FE491EE2349F08E1331
:1014A00005C0C90184559A4F0C94C4079F5FEECFC5
:1014B0000895AF92BF92CF92DF92EF92FF920F9377
:1014C0001F93CF93DF93EC01E62E009779F4E09120
:1014D000B805F091B905828190E00E94B806C091EC
:1014E000B805D091B9052396EE24EA94B12CF12CDD
:1014F000CC24C394FFE0DF2EFE01EF0DF11D10811F
:10150000112309F45AC0AB2CAC2480E5810F803440
:1015100008F5AA20F9F080E20E94A90600E0D09E1A
:10152000C0011124FC01E85EFB4FA490AA2049F001
:10153000A11205C0805F9B4F0E94C40702C00F5FCD
:10154000EECF80E20E94A906BB24B3948CEEA812D1
:1015500018C02DC0103FB8F0AA20A9F000E0D09E1E
:10156000C0011124FC01E452FC4FE491EE2349F048
:10157000E11305C08C529C4F0E94C40702C00F5F4C
:10158000EECFB12C14C080EF810F803150F480E297
:101590000E94A906812F0E94440A80E20E94A906A7
:1015A00006C0812F0E94A906123209F4BA2CEF104E
:1015B00002C00E944307F3949FCFEF1002C00E9425
:1015C0004307802FDF91CF911F910F91FF90EF90F4
:1015D000DF90CF90BF90AF900895CF93DF93D82F37
:1015E000C091D0050E9440078EE30E94A906809119
:1015F0003F06882331F090E00E94B80680E20E9406
:10160000A9066D2F88EE95E00E94590A8091D005B9
:10161000C813C093D005DF91CF910895811108C000
:1016200088EE95E00E94C409882389F022E001C079
:1016300020E030E0682FC90188519A4F0E94450987
:101640009093B9058093B80521E0892B09F020E03B
:10165000822F0895CF92DF92EF92FF920F931F9304
:10166000CF93DF93EC0179018091CC0583FD07C016
:1016700089E0440F551F661F771F8A95D1F781E5D2
:101680000E940108882311F0C1E066C0B0E3CB2EB0
:10169000B5E7DB2E0E94E3078F3F39F481E0C81ADB
:1016A000D108C114D104B1F7EFCF8E3F69F7A2E0A2
:1016B000CA2EDC2CC01AD10ACE18DF08E114F104BE
:1016C00019F4209739F40FC00E94E30781E0E81A6B
:1016D000F108F4CF0E94E307899301501109011525
:1016E0001105C1F730C0D0E0C0E00E94E3078823B5
:1016F00011F0CC2341F0015011090115110521F120
:101700000E94E307F8CF2D2F30E0F901E851FA4F9E
:101710008A3069F4108280E00E940E0BC82F81117C
:101720000BC080913F068F5F80933F0605C080838A
:10173000DD3118F4DF5F01C0D0E00150110901155F
:10174000110599F601C0C0E00E94E30781E0C81AC4
:10175000D108C114D104C1F780E00E94F6070E94AD
:10176000E3078C2FDF91CF911F910F91FF90EF90A6
:10177000DF90CF900895CF93DF93EC018A8180931F
:10178000E80588EE95E00E94E209BE016D5F7F4F9B
:101790008AEE95E0DF91CF910C942122EF92FF9297
:1017A0000F931F93CF93DF93892B09F444C07A01E1
:1017B000C0E0D0E0EC16FD0609F487C00091BC053E
:1017C0001091BD050115110509F47FC08091B80580
:1017D0009091B905892B21F1E0913F06F0E0E851A5
:1017E000FA4F8081882341F00E94D20780913F0602
:1017F0008F5F80933F0617C08AE00E94D207109245
:101800003F06E091B805F091B905808191819093F0
:10181000B9058093B805009731F00E94BB0B03C057
:1018200080E00E94D207015011091093BD0500937A
:10183000BC052196BFCF4115510561057105E9F041
:101840008091CC0583FD07C099E0440F551F661FAA
:10185000771F9A95D1F788E50E940108811137C05A
:101860008FEF0E94D2078EEF0E94D20780E092E0B5
:101870009093BD058093BC0528C0C091BC05D09154
:10188000BD05CE3F8FEFD80729F080E00E94D20738
:101890002197F7CF0E94E3078F71853011F011E097
:1018A0000EC0C8EEDDEF0E94E3078F3F21F02097C6
:1018B000B1F32197F8CF11E0CD2B09F010E080E0D3
:1018C0000E94F6070E94E30703C010E001C011E088
:1018D000812FDF91CF911F910F91FF90EF9008958D
:1018E000EF92FF920F931F93CF93DF9300D000D01E
:1018F0001F92CDB7DEB780E00E94F607419907C07E
:1019000040E050E0BA0180E090E00E94CE0B14E687
:101910000E94E3071150E1F740E050E0BA0180E493
:101920000E940108813009F058C04AEA51E060E0A5
:1019300070E088E40E940108813031F57E0185E085
:10194000E80EF11C8E010F5F1F4F0E94E307F801A4
:1019500081938F01EE15FF05C1F78B818130E9F589
:101960008C818A3AD1F500EE1EE240E050E060E062
:1019700070E489EE0E9401088823E1F10150110909
:101980000115110591F729C040E050E0BA0189EE38
:101990000E940108823020F432E0F32E99EE03C059
:1019A000FF24F39491E408EA11E640E050E0BA0124
:1019B000892F9D830E9401089D81882331F0015069
:1019C00011090115110589F708C040E052E060E0F7
:1019D00070E080E50E9401088111F12CF092CC05A5
:1019E00080E00E94F6070E94E30781E0FF20F1F00B
:1019F00080E01CC040E050E0BA018AE70E94010884
:101A00008111EBCF8E010F5F1F4F0E94E307F8019A
:101A100081938F01EE15FF05C1F7898186FF03C011
:101A20004CE0F42EDBCF24E0F22ED8CF0F900F90B5
:101A30000F900F900F90DF91CF911F910F91FF901A
:101A4000EF9008950F931F93CF93DF93CDB7DEB739
:101A5000AC970FB6F894DEBF0FBECDBF8C012091BE
:101A6000BA053091BB053093B9052093B805232BF7
:101A700061F1CE0101960E942518811127C0C8018D
:101A80000E949719811122C08091B8059091B905E3
:101A90000E94BB0B10923F06AE01455D5F4F60E0B8
:101AA00078E088EE95E00E94071C182FAE01455D96
:101AB0005F4F60E070E080E090E00E94071C80E0F3
:101AC00090E00E942518812F01C080E0AC960FB6EF
:101AD000F894DEBF0FBECDBFDF91CF911F910F9164
:101AE00008958F929F92AF92BF92CF92DF92EF9222
:101AF000FF920F931F93CF93DF9300D0CDB7DEB744
:101B00008C01E12CF12C812C912C5FE3B52E6FE040
:101B1000A62E7FE6C72EB092CF05F801308180E572
:101B2000830F803408F0EDC020E0A29EC001112494
:101B3000FC01E85EFB4FE491EE2349F0E31305C09E
:101B40009C01275E3B4F490102C02F5FEECF0F5F24
:101B50001F4FF4012491922FD12CF80130813323AF
:101B600009F4B2C0992309F4AAC09D3479F423354D
:101B700009F48BC0233441F12534C9F1323209F420
:101B800086C080E5830F8034F8F031C0953479F158
:101B900058F49134F9F09334B9F09F3309F081C0CF
:101BA0003FEF831A930A64C0933509F46EC020F4A2
:101BB0009E3409F454C075C0963589F09E3609F0FC
:101BC00070C0C092CF054BC0305B303408F4A3CF57
:101BD00023E47AC08FE48093CF0583E59EC031541F
:101BE0003A3108F073C0FFEF8F1A9F0A41C0832F6C
:101BF0003A8399830E94F9093A819981882309F1EE
:101C0000383211F4D39403C0393209F4DA94E11470
:101C1000F10409F478018FEB830F8A3138F4F8016D
:101C20003197808181548A3108F44BC0D11005C0AE
:101C30003D3319F0C092CF0502C09093CF0595E4D3
:101C400037C0EF2809F43DC08091CF058F36C9F524
:101C50002FEF821A920A0150110995E413C0F8017E
:101C6000808180538A3038F4E114F10409F478015A
:101C7000C092CF051DC0EF2849F1FFEF8F1A9F0AD0
:101C800001501109E12CF12C13C0323231F4D11082
:101C90003CC093E5DD24D3940BC0DD20A1F093E597
:101CA00007C0F8019083FFEF8F1A9F0A9093CF052A
:101CB0000F5F1F4FF4018491292F982F4ECF20E002
:101CC00006C025E401C023E59D3409F0292FF80161
:101CD0008081811112C08091CF05911103C086349B
:101CE00039F411C08F3631F4F4019181911106C09D
:101CF0008FE404C02093CF0506C086E48093CF050F
:101D000002C086E40AC0822F08C0FFEF8F1A9F0A24
:101D1000C092CF0593E5D12CCBCF0F900F90DF91E0
:101D2000CF911F910F91FF90EF90DF90CF90BF90D8
:101D3000AF909F908F900895FF920F931F93CF9332
:101D4000DF938C01FC0110820E9440078AE30E940D
:101D5000A906E8010E94B407F82EFBE18F1305C025
:101D60008E010F5F1F4F88831AC08DE0F816B9F0FF
:101D7000EFE7FE1205C00C171D0738F4219705C0C8
:101D80008F2D0E94F9098111F99218820E94400753
:101D90008AE30E94A906C8010E94AC06DBCFC017E7
:101DA000D10719F480E3888319828AE00E94A9068A
:101DB0008F2DDF91CF911F910F91FF900895CF93B9
:101DC000DF93C1E0D0E0E091D105F091D205208110
:101DD000203FC8F1223F19F1233F69F1213F09F06B
:101DE00068C0CF0101969093D2058093D10581817F
:101DF000883209F05EC03296F093D205E093D105A7
:101E00000E9431102091D1053091D2052F5F3F4FB4
:101E10003093D2052093D1050E946E080AC03196F6
:101E2000F093D205E093D10560913E0610923E06F4
:101E3000862F90E040C03196F093D205E093D10513
:101E40000E94B72038C02D3249F43196F093D20564
:101E5000E093D105D195C195D109B5CF80ED820F21
:101E60008A3048F440E050E061ED75E0CF010E9417
:101E7000C720CB0120C0CF0101969093D20580935B
:101E8000D105283269F40E9431102091D10530919A
:101E9000D2052F5F3F4F3093D2052093D1050BC061
:101EA000E081F0E0EE0FFF1FE857FA4F808191814B
:101EB00002C080E090E09C01C29FC001C39F900DD2
:101EC000D29F900D1124DF91CF9108950F931F930E
:101ED000CF93DF93C1E0D0E00E94DF0E8C01E09150
:101EE000D105F091D205CF0101969093D205809350
:101EF000D10580818A3249F08F3281F40E94660FC9
:101F0000BC01C8010E9433200EC0CE01809FE001B9
:101F1000819FD00D909FD00D1124DECFF093D2057C
:101F2000E093D105B801C69FC001C79F900DD69F11
:101F3000900D1124DF91CF911F910F9108950F9370
:101F40001F93CF93DF9301E010E0C0E0D0E00E9448
:101F5000660FE091D105F091D2059F012F5F3F4FB1
:101F60003093D2052093D1052081AC01049FC0019C
:101F7000059F900D149F900D11242B3229F02D32C6
:101F800031F4119501951109C80FD91FE0CFF093D5
:101F9000D205E093D1058C0F9D1FDF91CF911F914A
:101FA0000F910895CF93DF930E949F0FEC01E09172
:101FB000D105F091D205CF0101969093D20580937F
:101FC000D10580818A3151F08B3199F40E94D20F72
:101FD00031E020E08C179D074CF407C00E94D20F1F
:101FE00031E020E0C817D9070CF430E0832F922F9E
:101FF00005C0F093D205E093D105CE01DF91CF91DA
:102000000895CF93DF930E94D20FEC01E091D105A8
:10201000F091D205CF0101969093D2058093D1051E
:1020200080818C3319F08E3349F013C00E94011067
:1020300031E020E0C817D9074CF007C00E9401101A
:1020400031E020E08C179D070CF030E0832F922FB9
:1020500005C0F093D205E093D105CE01DF91CF9179
:102060000895CF93DF930E940110EC01E091D10518
:10207000F091D205CF0101969093D2058093D105BE
:1020800080818D3151F08D3399F40E94311031E00F
:1020900020E0C817D90741F408C00E94311031E090
:1020A00020E0C817D90709F430E0832F922F05C02C
:1020B000F093D205E093D105CE01DF91CF91089541
:1020C0000F931F93CF93DF9389EE95E09093D20502
:1020D0008093D105C8EED5E08091E805843E09F4EF
:1020E0003DC1A0F4813C09F47FC030F4893B49F143
:1020F000803C09F451C089C1813E09F48DC0823E03
:1021000009F4A7C0803E09F080C1BFC0893E09F430
:1021100012C148F4873E09F4E4C008F0F0C0853EDF
:1021200009F451C172C18D3E21F18E3E09F4D4C033
:102130008A3E09F06AC11092B9051092B8058CE088
:1021400065C16CE288EE95E00E94AB09009709F446
:102150005CC1EC0119920E9431108C01D093D20520
:10216000C093D1050E943110682FC8010E944C070E
:102170004CC18BEE95E09093D2058093D105C09130
:10218000E905D0E0C154D1090E943110FE01EE0FE3
:10219000FF1FE65FF94F14C16CE288EE95E00E94E4
:1021A000AB09EC01009709F430C118820E9431108C
:1021B000853138F4982F990F980F990F9093400616
:1021C00003C088E7809340062196D093D205C09340
:1021D000D1050E943110883008F087E08093D00547
:1021E00080E40E94211211C16CE288EE95E00E9409
:1021F000AB09009709F409C1EC0119920E94311052
:10220000182FD093D205C093D1050E943110682FAA
:10221000812F0E947408F9C01091E90588EE95E0BD
:102220000E949C0E8091E8058B3131F41092B90523
:102230001092B80588E0EAC0D093D205C093D105CA
:102240000E943110E12FF0E0EE0FFF1FE857FA4F28
:10225000B7C061E188EE95E00E94AB09EC01009700
:1022600079F018820E943110892B09F4CEC0BE018A
:102270006F5F7F4F88EE95E00E94212282E0C6C00A
:102280001092B9051092B805BEC009900020E9F778
:102290002197C85ED5408091E905823271F440E013
:1022A00062E28AEE95E00E94B6098091D105909194
:1022B000D20501960E94AC0604C00E9431100E9413
:1022C000B806DD27C951DA4F88818B3309F49DC0E8
:1022D0008AE00E94A90699C00E9431100E94C4168B
:1022E00094C00E94311060E00E94EC089093B90500
:1022F0008093B805892B09F086C087E087C02091BC
:102300000906E091B805F091B90580819181E22F2D
:10231000F0E0EE0FFF1FED52FA4F9183808381E0D2
:10232000820F809309068A30E0F21092B90510926C
:10233000B80583E06BC0E0910906E11106C0109278
:10234000B9051092B80584E061C0E150E093090638
:10235000F0E0EE0FFF1FED52FA4F4FC060E188EE44
:1023600095E00E94AB09009709F48ACFEC0119921D
:102370008BEE95E09093D2058093D1050091E9050D
:10238000015410E00E943110D801AA0FBB1FA65FB4
:10239000B94F8D939C93D093D205C093D1050E94E1
:1023A0003110F801EE0FFF1FEE0FFF1FEF5BF94F2B
:1023B00093838283A091B805B091B9058D919C91CA
:1023C0009183808322C0E091E905E154F0E0DF01D0
:1023D000AA0FBB1FA65FB94F8D919C9111970196D3
:1023E0008D939C93EE0FFF1FEE0FFF1FEF5BF94FD6
:1023F000228133812817390744F08081918190939D
:10240000B9058093B80581E001C080E0DF91CF91EC
:102410001F910F91089580910706873080F01092E8
:10242000070660E089E00E947A080E94B4078B31B9
:1024300021F40E94400788E008950E94400780E050
:102440000895CF93C82F81E00E94F60742988C2F01
:102450000E94D20780E0CF910C94F6073A9A88EC5C
:102460000E94BA1683EE0E94211283EA0E94211272
:102470008AE00E94BA1680EA0E9421128AE00E9435
:10248000BA1688EC0E9421128AE00E94BA1680E4F3
:102490000E9421128CE20E94211282E30E94BA164D
:1024A0008EE20E9421128CE30E94BA168FE20E94F3
:1024B00021128AE00E94BA1686E20E94211282E36B
:1024C0000C94BA16CF93C82F81E00E94F607429A67
:1024D0008C2F0E94D20780E0CF910C94F607CF9307
:1024E000806B0E94211280E10E94211280E00E94F4
:1024F000211280EE0E942112C0E080E00E94621250
:10250000CF5FC038D1F78EEE0E94211210924006A4
:10251000CF910895CF93C0E08C2F0E946F12CF5FB0
:10252000C830D1F71092400687E08093D00580E450
:10253000CF910C942112CF93C82F81E80E942112D1
:102540008C2F8F73CF910C942112EF92FF921F93D7
:10255000CF93DF9300D0CDB7DEB7182F862F806BD7
:1025600049835A830E942112812F82958F70806146
:102570000E942112812F8F700E94211280EE0E94F2
:1025800021124981E42E5A81F52E16E0F70181913E
:102590007F010E9462121150C9F78EEE0F900F90CA
:1025A000DF91CF911F91FF90EF900C9421121F9318
:1025B000CF93DF931F92CDB7DEB7182F862F806B96
:1025C00049830E942112812F82958F7080610E9421
:1025D0002112812F8F700E9421124981842F0F9028
:1025E000DF91CF911F910C9462121F93CF93DF93D1
:1025F000CDB7DEB727970FB6F894DEBF0FBECDBFBD
:10260000182F8D3029F48091D0050E946F1259C087
:102610002091400630E02B37310514F48A30E9F47C
:102620008091D0058F5F8093D005909107069F5FC2
:1026300090930706883010F01092D0058091D00555
:10264000880F880F880F885F80646F830E94211233
:102650008091D0050E946F126F81103290F1123874
:1026600010F4105205C0103C10F01E5501C010E0CF
:1026700025E0129FC0011124DE01119620E030E018
:10268000AD01865C994FFC01E20FF31FE4916111EB
:10269000E095EC932F5F3F4F11962530310599F768
:1026A000662319F08FEF8E8301C01E826091D005E2
:1026B000809140060E94A512809140068A5F809317
:1026C000400627960FB6F894DEBF0FBECDBFDF9150
:1026D000CF911F91089587FD1AC06034C0F420E4A3
:1026E000261B622F669566956695442369F030E057
:1026F000209530952770332741E050E0022E01C02D
:10270000440F0A94EAF701C040E00C94D7120895F0
:10271000BF92CF92DF92EF92FF920F931F93CF93CE
:10272000DF93C82FD62F142FC02EA22FB0E0A61BE8
:10273000B109B7FF03C0B195A195B109E12FF0E050
:10274000EC1BF109F7FF03C0F195E195F109EE24C7
:10275000E394EA17FB0714F0E12C06C0812F122F37
:10276000282F8C2FCD2FD82F1C1730F48D2FD22F40
:10277000282F8C2FC12F182FD12EDC1AE22FF0E03A
:10278000ED1BF109F7FF03C0F195E195F109BE2EAC
:10279000FD2CF694D21710F401E00FC00FEF0DC01E
:1027A0004C2DEE2069F06C2F8D2F0E946B13FB18BF
:1027B000F7FE02C0D00FFD0CCF5FC11788F303C036
:1027C0006D2F8C2FF2CFDF91CF911F910F91FF9042
:1027D000EF90DF90CF90BF900895CF92DF92EF926D
:1027E000FF920F931F93CF93DF93C62E182FC42F02
:1027F000D0E0C80FD11DE22EF12CE60EF11C212FE6
:1028000030E02C173D077CF4DC2C2D2D30E02E150C
:102810003F053CF4402F6D2D812F0E946B13D39404
:10282000F4CF1F5FECCFDF91CF911F910F91FF90FD
:10283000EF90DF90CF900895BF92CF92DF92EF920A
:10284000FF920F931F93CF93DF93182FD62EB42EA2
:10285000C22FD82FE42EF12CE80EF11CCC24CA9400
:10286000C20EC60EED2FF0E0EE15FF0564F4402F0A
:102870006D2D8D2F0E946B13402F6C2D8D2F0E947C
:102880006B13DF5FEFCFFD2CD0E0CD0DD11DEE241B
:10289000EA94EB0CE10E2F2D30E02C173D0764F489
:1028A000402F6F2D812F0E946B13402F6F2D8E2D87
:1028B0000E946B13F394EFCFDF91CF911F910F9193
:1028C000FF90EF90DF90CF90BF900895AF92BF92AE
:1028D000CF92DF92EF92FF920F931F93CF93DF93EC
:1028E000182F062FC22FEE24E394E41AD42EDD0C09
:1028F000D194D42F642F600F422F0E946B13602F4E
:102900006D1B4C2F812F0E946B134C2F602F8D2F2E
:10291000810F0E946B134C2F602F812F8D1B0E9403
:102920006B13F12CFD160CF044C0E7FC04C0D15031
:10293000D394D394ED0CF3948F2D880F8F5FE80E12
:10294000AF2CA10E4C2FBD2EB00E6B2D8A2D0E94E8
:102950006B13C12ECF184C2F6B2D8C2D0E946B1337
:102960004C2FB02EBD1A6B2D8A2D0E946B134C2F4D
:102970006B2D8C2D0E946B13CF2CC00E4C2F6C2D09
:10298000AD2EA10E8A2D0E946B134C2F6C2DC12EE3
:10299000CD1A8C2D0E946B13B02EBF184C2F6B2DAF
:1029A0008A2D0E946B134C2F6B2D8C2D0E946B1364
:1029B000B9CFDF91CF911F910F91FF90EF90DF90F2
:1029C000CF90BF90AF9008956F927F928F929F9219
:1029D000AF92BF92CF92DF92EF92FF920F931F932D
:1029E000CF93DF93A82EC62ED22EBB24B394B41A55
:1029F000942E990C9194F42EE62EE41AC62FD0E072
:102A00008E01040F111DEE2DF0E00E171F073CF094
:102A10004D2D6E2D8A2D0E946B13E394F4CFE12C83
:102A2000EF140CF043C0B7FC04C0FA949394939451
:102A3000B90CE3948E2D880F8F5FB80E8C2C8F18F5
:102A40008E010F0D111DF7FC1A956E2C6A0C7A2C55
:102A50007E18E82DF0E00E171F0764F04D2D682D4D
:102A6000862D0E946B134D2D682D872D0E946B13B0
:102A70008394EFCF8C2C8E188E010E0D111DE7FC68
:102A80001A956F2C6A0C7A2C7F18E82DF0E00E173F
:102A90001F0734F24D2D682D862D0E946B134D2D8E
:102AA000682D872D0E946B138394EFCFDF91CF9118
:102AB0001F910F91FF90EF90DF90CF90BF90AF905C
:102AC0009F908F907F906F9008959093C500809312
:102AD000C40088E18093C100519A50980895909164
:102AE000C00095FFFCCF8093C60080E090E0089581
:102AF0008091C00087FFFCCF8091C600089580912F
:102B0000C00080780895CF93DF93EC0189918823EA
:102B100019F00E946F15FACFDF91CF910895CF93EE
:102B2000C82F82958F708A3010F4805D01C0895A59
:102B30000E946F158C2F8F70282F30E02A303105BE
:102B400014F4805D01C0895ACF910C946F15CF9316
:102B5000C82F892F0E948F158C2FCF910C948F1521
:102B6000CF92DF92EF92FF926B017C01C7010E942E
:102B7000A715C601FF90EF90DF90CF900C94A7159A
:102B8000AF92BF92CF92DF92EF92FF920F931F937B
:102B9000CF93DF931F92CDB7DEB77C0105E010E045
:102BA00020E080E1A82E87E2B82E9AE0C92ED12C31
:102BB000C701B5010E941F20611106C0211104C088
:102BC00081E0A816B10439F480E3860F69830E947E
:102BD0006F1521E069816A9DC0016B9D900D1124E4
:102BE000E81AF90AC501B6010E941F205B010150D5
:102BF000110901151105E1F60F90DF91CF911F9199
:102C00000F91FF90EF90DF90CF90BF90AF9008951D
:102C1000AF92BF92DF92EF92FF920F931F93CF93E9
:102C2000DF931F92CDB7DEB7D82E87FF04C08DE2A9
:102C30000E946F15D19403E010E020E034E6A32E4B
:102C4000B12C4AE0E42EF12C8D2D992787FD90952B
:102C5000B5010E941F20161634F0211104C081E036
:102C6000A816B10439F480E3860F69830E946F15BA
:102C700021E069816A9DD0181124C501B7010E9425
:102C80001F205B010150110901151105E9F60F9094
:102C9000DF91CF911F910F91FF90EF90DF90BF9048
:102CA000AF9008952F923F924F925F926F927F92D2
:102CB0008F929F92AF92BF92CF92DF92EF92FF924C
:102CC0001F93CF93DF931F92CDB7DEB74B015C010B
:102CD0005AE0252E312C10E0C12C6AECD62E6AE980
:102CE000E62E6BE3F62E7AE0472E512C612C712CE8
:102CF000C501B401A70196010E944720211108C017
:102D0000111106C081E0C816D104E104F10439F4C0
:102D100080E3820F29830E946F1511E02981A22F81
:102D2000B0E0A70196010E940820861A970AA80A17
:102D3000B90AC701B601A30192010E9447206901A7
:102D40007A01E1E02E1A31082114310489F60F903E
:102D5000DF91CF911F91FF90EF90DF90CF90BF90C8
:102D6000AF909F908F907F906F905F904F903F902B
:102D70002F90089520EA3FE0882329F0F901319748
:102D8000F1F78150F9CF089520EA3FE0009729F04C
:102D9000F9013197F1F70197F9CF0895CF93C82F33
:102DA000CC2331F088EE93E00E94C416C150F8CFD6
:102DB000CF9108950F931F939B01AC01E091CD0536
:102DC000F091CE0522503109410951098681978140
:102DD000A085B1850297A109B109281739074A07CB
:102DE0005B0768F4A281B0E00E9408200289138981
:102DF00024893589600F711F821F931F03C060E013
:102E000070E0CB011F910F9108950F931F93CF9303
:102E1000DF93EC01E091CD05F091CE051982188287
:102E20006C817D818E819F81613071058105910565
:102E300059F1068117812085318560177107820756
:102E4000930710F5611571058105910539F420810D
:102E5000233021F466857785808991896887798711
:102E60008A879B87611571058105910519F00E947C
:102E7000DA1604C066857785808991896C877D879D
:102E80008E879F8780E001C081E0DF91CF911F9105
:102E90000F9108950F931F93CF93DF9300D000D02D
:102EA000CDB7DEB7E091CD05F091CE05623071056A
:102EB0008105910508F468C0068117812085318558
:102EC000601771078207930708F05EC020812230E7
:102ED00019F0233011F158C09B013327220F331F03
:102EE000472F582F692F772782859385A485B5852D
:102EF000480F591F6A1F7B1F02E010E0CE010196A8
:102F00000E942A0B811140C06A8170E0762F6627EB
:102F10008981682B80E090E03BC09B012F773327AD
:102F2000220F331F220F331FAB01BC01A7E07695A0
:102F3000679557954795AA95D1F782859385A4857E
:102F4000B585480F591F6A1F7B1F04E010E0CE01B2
:102F500001960E942A0B811117C02C816B81862F4C
:102F600090E0A0E0B0E077276627922B2981622BC2
:102F70000A8110E0102F002720E030E0602B712B39
:102F8000822B932B9F7004C061E070E080E090E0A2
:102F90000F900F900F900F90DF91CF911F910F9195
:102FA0000895CF92DF92EF92FF920F931F93CF93EA
:102FB000DF93EC016A017B0102E010E02EEF31E0CB
:102FC0000E942A0B811133C0898190E0982F8827B5
:102FD0002881822B85359A4A61F526E330E0B701D6
:102FE000A601CE010E942A0B811109C0898190E0BF
:102FF000982F88272881822B86349144E1F002E0C3
:1030000010E022E530E0B701A601CE010E942A0BB4
:1030100081110BC0298130E0322F22278881282B93
:1030200081E02634314441F406C081E005C083E0EC
:1030300003C082E001C080E0DF91CF911F910F912A
:10304000FF90EF90DF90CF9008954F925F926F9234
:103050007F92AF92BF92CF92DF92EF92FF920F9347
:103060001F93CF93DF93CDB7DEB7AC970FB6F8942D
:10307000DEBF0FBECDBF5C011092CE051092CD0514
:10308000009709F43CC10E94700C80FD3AC140E0F9
:1030900050E0BA01CE0101960E94D117813081F52E
:1030A00000E110E02EEB31E040E050E0BA01CE014B
:1030B00001960E942A0B882311F081E023C18D81A3
:1030C000811102C087E01EC18C854B84512C612C7C
:1030D000712C320155244424782A8985482A8A850E
:1030E00090E0982F8827A0E0B0E0482A592A6A2A61
:1030F0007B2AB301A201CE0101960E94D11703C021
:10310000412C512C32018330C1F28111DBCF04E21A
:1031100010E02DE030E0B301A201CE0101960E9443
:103120002A0B8111CACF2B8530E0322F22278A85C6
:10313000282B40E050E02115310541055105A9F447
:103140008B8D2A8D422F50E060E070E033272227DC
:10315000582B888D282B898D90E0982F8827A0E008
:10316000B0E0282B392B4A2B5B2BAC81B0E00E94BE
:1031700008206B017C010B8110E0102F00278A8151
:10318000082B980140E050E029A73AA74BA75CA77D
:10319000420E531E641E751ED5011A964D925D9205
:1031A0006D927C921D97E9811296EC9312976E8135
:1031B00070E0762F66278D81682B15967C936E9331
:1031C0001497888590E0982F88274F81842BA0E062
:1031D000B0E00097A105B105B1F44F898E8990E068
:1031E000A0E0B0E0DC0199278827B42B4C89842B20
:1031F0004D8950E0542F44278A0120E030E0802B95
:10320000912BA22BB32BF4E076956795FA95E1F715
:103210008B0120E030E00DA31EA32FA338A7BC0133
:10322000CD0129A53AA54BA55CA5621B730B840BA8
:10323000950B6C197D098E099F090DA11EA12FA167
:1032400038A5601B710B820B930B2E2F30E040E0F2
:1032500050E00E9447202E5F3F4F4F4F5F4FD501F8
:1032600016962D933D934D935C931997273FBFE09E
:103270003B074105510508F425CF273F3F4F410546
:10328000510510F482E001C083E0D5018C938330B6
:10329000B1F42BA18AA190E0A0E0B0E0DC01992775
:1032A0008827B22B28A1822B49A150E0542F442714
:1032B00060E070E0842B952BA62BB72B06C0D701BE
:1032C000C601840D951DA61DB71DF501868797873C
:1032D000A08BB18B0DA11EA12FA138A5400E511EB0
:1032E000621E731E4C0C5D1C6E1C7F1C428A538A2E
:1032F000648A758A1182B092CE05A092CD0580E0D5
:1033000001C082E0AC960FB6F894DEBF0FBECDBF11
:10331000DF91CF911F910F91FF90EF90DF90CF90B1
:10332000BF90AF907F906F905F904F9008957F9285
:103330008F929F92AF92BF92CF92DF92EF92FF92C5
:103340000F931F93CF93DF93CDB7DEB7EC970FB6F4
:10335000F894DEBF0FBECDBFC090CD05D090CE0596
:10336000C114D10409F440C1D60111961C929E01EA
:103370002F5C3F4F3CA32BA39C017901F901808175
:103380002F5F3F4F8032C9F38F3209F479011DA2BC
:103390001EA21FA218A6D7018C91813248F4CE013B
:1033A00081960E9405171982882309F4D9C049C162
:1033B00010E2712E4E01BCE08B0E911CEBA1FCA122
:1033C000DF01CF010B96A817B90711F07D92FBCF53
:1033D00090E080E028E031E0380FD701A80FB11D60
:1033E0008C91813298F08F3289F08E3209F400C1CD
:1033F000921760F44FE9480F4A3108F48052DF0118
:10340000A90FB11D8C939F5F832FE5CFE30EF11CB5
:1034100091E0813208F090E09387CE0181960E947E
:10342000051781118EC029A13AA12F703327B5E06D
:10343000220F331FBA95E1F74DA55EA56FA578A9B8
:1034400000E210E0CE0101960E942A0B8111F6C025
:103450008981882309F478C02C8523FD0FC06BA1D6
:103460007CA1FE013196CB01E815F90509F473C082
:103470004191DC013D91CD014317B1F3A090CD0501
:10348000B090CE0509A11AA10F5F1F4F01151105BC
:1034900009F456C08DA59EA5AFA5B8A90097A105B2
:1034A000B10509F44DC098012F703327232B09F083
:1034B00044C00196A11DB11D8DA79EA7AFA7B8ABB3
:1034C00069A57AA58BA59CA5611571058105910556
:1034D00039F4F501848195810817190788F52DC005
:1034E000D50112962C91422F50E04150510998017C
:1034F000A4E036952795AA95E1F742235323452B5F
:10350000E1F40E944A17623071058105910508F4C3
:1035100075C0F50126813781408551856217730793
:103520008407950768F469A77AA78BA79CA70E94D0
:10353000DA166DA77EA78FA798AB1AA309A373CF3E
:1035400083E0833009F07DC0EBA1FCA18385882353
:1035500009F476C04BC0FB018385882309F450C071
:103560008981882309F442C08C8584FD3FC08E89FF
:1035700090E0982F88272D89822BA0E0B0E0DC0115
:10358000992788274C8D50E0542F44272B8D422BB0
:1035900060E070E0842B952BA62BB72BF601868F6D
:1035A000978FA0A3B1A328A18F8D90E0A0E0B0E0F9
:1035B000DC0199278827B22B2D8D822B4E8D50E070
:1035C000542F442760E070E0842B952BA62BB72B5B
:1035D000828F938FA48FB58F168A178A108E118EC3
:1035E00081E0818380E02DC086E02BC083E029C08C
:1035F000283009F00BCF98E02BE006CF81E0A1CF77
:1036000024FF1EC08E8990E0982F88272D89822B59
:10361000A0E0B0E0DC01992788274C8D50E0542FC2
:1036200044272B8D422B60E070E0842B952BA62B3A
:10363000B72B8DA39EA3AFA3B8A7C0CE81E001C0D6
:1036400084E0EC960FB6F894DEBF0FBECDBFDF91DD
:10365000CF911F910F91FF90EF90DF90CF90BF908F
:10366000AF909F908F907F9008954F925F926F924E
:103670007F928F929F92AF92BF92CF92DF92EF9202
:10368000FF920F931F93CF93DF934C017B015A015D
:10369000C091CD05D091CE05FA01118210822097FC
:1036A00009F4A1C0898180FFA0C08A8D9B8DAC8D5B
:1036B000BD8D4E895F89688D798D841B950BA60B16
:1036C000B70BA70160E070E084179507A607B7075E
:1036D00008F47C013401412C82E0582EE114F104FD
:1036E00009F47CC08E899F89A88DB98DAC01BD017C
:1036F000517066277727452B462B472BE1F5DA805B
:10370000DA94AC01BD0109E0769567955795479528
:103710000A95D1F7D422C9F4892B8A2B8B2B29F453
:103720006E8D7F8D88A199A106C06AA17BA18CA115
:103730009DA10E944A17623071058105910508F428
:103740004FC06AA37BA38CA39DA36AA17BA18CA17C
:103750009DA10E94DA16611571058105910509F494
:103760003FC0DC01CB018D0D911DA11DB11D8EA3AC
:103770009FA3A8A7B9A72E893F893170C201821BD8
:10378000930B67018E159F0508F46C014EA15FA194
:1037900068A579A58114910419F480E090E001C036
:1037A000C30186010E942A0B81111AC08E899F894C
:1037B000A88DB98D8C0D9D1DA11DB11D8E8B9F8B6C
:1037C000A88FB98F6C0C7D1CEC18FD08F501808169
:1037D00091818C0D9D1D9183808380CF80E006C0F8
:1037E000198281E003C086E001C085E0DF91CF91BE
:1037F0001F910F91FF90EF90DF90CF90BF90AF900F
:103800009F908F907F906F905F904F9008954F9210
:103810005F926F927F928F929F92AF92BF92CF9260
:10382000DF92EF92FF920F931F93CF93DF936C0180
:103830008B015A01C091CD05D091CE05FA011182BC
:103840001082209709F4CFC0898180FFCEC0807498
:103850006115710581F4811104C089818F7B898391
:10386000BDC040E050E0BA0180E090E00E94CE0B85
:103870008111B6C0F2CF81110AC08E899F89A88DAF
:10388000B98D88279E7F8E8B9F8BA88FB98F8A8D4D
:103890009B8DAC8DBD8D4E895F89688D798D841B24
:1038A000950BA60BB70BA80160E070E08417950795
:1038B000A607B70708F48C01812C32E0932E01157E
:1038C000110509F48BC08E899F89A88DB98D9C0143
:1038D0003170232B09F045C0FA80FA94AC01BD0188
:1038E00029E076956795579547952A95D1F7F42263
:1038F000C9F4892B8A2B8B2B29F46E8D7F8D88A19F
:1039000099A106C06AA17BA18CA19DA10E944A1722
:10391000623071058105910508F462C06AA37BA33A
:103920008CA39DA36AA17BA18CA19DA10E94DA1604
:10393000611571058105910509F452C0AB01BC0107
:103940004F0D511D611D711D4EA35FA368A779A77F
:1039500080E090E00E94CE0B811142C0898180649A
:1039600089838E899F8991709401281B390B780176
:103970002017310708F479012701612C712CB3015C
:10398000A201C6010E94CE0B81112AC08E899F8997
:10399000A88DB98D840D951DA61DB71D8E8B9F8B8F
:1039A000A88FB98FCE0CDF1C0E191F09F5012081DD
:1039B00031812E0D3F1D318320839170892B09F0B9
:1039C0007ECF40E050E0BA0180E090E00E94CE0B54
:1039D000811106C089818F7B898371CF80E006C009
:1039E000198281E003C086E001C085E0DF91CF91BC
:1039F0001F910F91FF90EF90DF90CF90BF90AF900D
:103A00009F908F907F906F905F904F900895A895B2
:103A100088E10FB6F89480936000109260000FBEAA
:103A200081E0809381000E94470880ED95E00E942C
:103A3000C4070E94B4071092810080918400909185
:103A400085000E94BC200E9448078AE00E94A906C7
:103A5000CFE028E2F22ED6E434E0A32E02E04EE4DA
:103A6000E42E10923F061092E80581E08093E7056E
:103A70008FE38093CF0580E00E94ED0A10E0CC2414
:103A8000C3948FE3D82E93E4B92E0E94B4078B31F0
:103A900039F09091CF058F3769F08D3091F51FC0C7
:103AA0001092E80510923F06C092E705D092CF052C
:103AB00010E05CC0112311F011500AC020913F06A4
:103AC000222331F0963441F010923F06C092E70570
:103AD000963411F0111145C0D092CF0542C09E36E8
:103AE00009F4FAC09F3409F4F7C090913F06992376
:103AF00029F09091E805992309F4EEC0D093CF0501
:103B000035C0963499F12091080623FF04C0913402
:103B100011F0933559F51C3148F51123E1F0212FAF
:103B200030E08D3371F4F901E951FA4F90819E3301
:103B300019F411508AE10FC09C3369F411508BE1E4
:103B40000AC08E3341F4F901E951FA4F90819C3358
:103B500011F411508DE1E12FF0E0E851FA4F80832C
:103B60001F5FE12FF0E0E851FA4F10829091E805D5
:103B7000992309F4A4C020913F0621112CC0905331
:103B80009A3048F5803289F488EE95E00E94FB2156
:103B9000009709F494C080933F06B092CF0510922D
:103BA000E8050093E70510E08AC0E12FF0E0E95155
:103BB000FA4F808180538A3058F488EE95E00E9455
:103BC000FB218F3F910509F01CF4E092CF0577C0EF
:103BD000D093CF0574C09091E905992321F090917D
:103BE000CF05933469F40E94190A882331F0E12F3C
:103BF000F0E0E951FA4F808347C0D093CF0544C02D
:103C0000977F953409F040C0A092E7050E94190AF9
:103C10008823C1F1A12FB0E0A851BA4FFD0131971F
:103C200080831092D2051092D10590E0C99F900137
:103C30001124F901E452FC4FE491EE2389F041E0B4
:103C4000490FE8130BC09093070680933E0623525A
:103C50003C4F3093D2052093D10506C0942FE6CF78
:103C60009093070610923E06E091D105F091D2059F
:103C7000E491EE2339F0FC921F5FE12FF0E0E85170
:103C8000FA4F10820093E70588EE95E00E94710DCF
:103C90009091CF05963449F0E12FF0E0E951FA4FC9
:103CA0009081903261F4833551F01150E12FF0E0B2
:103CB000E851FA4F1082111102C0D092CF058091C5
:103CC000CF05863429F460E082E390E00E944C073F
:103CD000812F0E94ED0AD9CE0E9440078091E8050D
:103CE000833B09F464C198F4803B71F138F481118D
:103CF0006CC180913F060E94020973C1813B09F4A7
:103D000066C0823B09F061C10E94A2096AC1873B7B
:103D100009F43CC190F4853B09F43EC1863B09F0AF
:103D200054C10E9491080E94B8068AE30E94A90625
:103D300080EB94E00E94B80654C1883B09F429C185
:103D40008A3B09F479C041C10E9495098091BA0566
:103D50009091BB059093B9058093B80510923E06EB
:103D600011E08091B8059091B905892B51F10E941D
:103D70002107811180933E06123078F4C090B80577
:103D8000D090B905B6016D5F7F4F88EE95E00E9437
:103D90002122F601828180933F060E946010182F35
:103DA00081110AC0E091B805F091B9058081918137
:103DB0009093B9058093B80580913E068B3189F6C2
:103DC00018E080913F0690E00E94B8060BC10E9467
:103DD000480789EE95E09093D2058093D105109223
:103DE00007060E94311061E00E94EC089093B9052B
:103DF0008093B80510E02091B8053091B905232BC8
:103E000009F4F0C060E080E090E00E94590A8AE086
:103E10000E94A9060E940B12182F883011F418E096
:103E2000E1C0E091B805F091B9052081318130936E
:103E3000B9052093B805DFCF0E9448078091E905B6
:103E4000863629F4A092E70561E08BE005C083E0A7
:103E50008093E70561E08AE00E947A088AE00E9488
:103E6000A9061092070610923F0610E040913F0607
:103E700050E09A01220F331F240F351FF901EE572E
:103E8000FC4FD490DD2009F4ADC0F901EF57FC4F91
:103E900024918091E705282309F472C08CE30E94E5
:103EA000A90680913F0690E0FC01EE0FFF1FE80F8E
:103EB000F91FE058FC4F84910E94A9068EE30E94EE
:103EC000A90680E20E94A90680913F0690E0FC01CD
:103ED000EE0FFF1FE80FF91FEF57FC4FE491E4FFCF
:103EE00004C061E08DE00E947A08D092E80510924B
:103EF000E9056FEF88EE95E00E94590A2091E705E9
:103F000090E0243061F4C89F9001C99F300D1124C6
:103F100023523C4F3093D2052093D10521C0C89F36
:103F20009001C99F300D1124275E3B4F3093D2057D
:103F30002093D105E091D105F091D2058491882399
:103F4000B1F090EF980F903178F40E94440A80917C
:103F5000D1059091D20501969093D2058093D10519
:103F600080E20E94A906E6CF0E94A906F0CF8AE06F
:103F70000E94A9060E940B12182F883009F44FCF17
:103F800080913F068F5F80933F0670CF0E94480765
:103F900028C00E94950925C040E062E28AEE95E0C3
:103FA0000E94B6098AEE95E00E94220D0CC00E9484
:103FB000A20940E062E28AEE95E00E94B6098AEE2C
:103FC00095E00E94E206182F0DC080913F060E94E6
:103FD0000E0B60E080E090E00E94590A8AE00E94A7
:103FE000A90610E061E0812F0E947A080E94B407C0
:103FF00038CDA29FB001B39FC001A39F700D811D5A
:104000001124911DB29F700D811D1124911D0895E1
:104010000E94F91FA59F900DB49F900DA49F800D45
:10402000911D11240895991B79E004C0991F9617DA
:1040300008F0961B881F7A95C9F780950895AA1BEA
:10404000BB1B51E107C0AA1FBB1FA617B70710F083
:10405000A61BB70B881F991F5A95A9F780959095B5
:10406000BC01CD01089597FB072E16F4009407D0EC
:1040700077FD09D00E941F2007FC05D03EF49095E3
:1040800081959F4F0895709561957F4F0895A1E2A6
:104090001A2EAA1BBB1BFD010DC0AA1FBB1FEE1FC2
:1040A000FF1FA217B307E407F50720F0A21BB30B0D
:1040B000E40BF50B661F771F881F991F1A9469F789
:1040C00060957095809590959B01AC01BD01CF01E5
:1040D00008958F929F92AF92BF92CF92DF92EF920C
:1040E000FF92CF93DF93EC01688179818A819B8174
:1040F000611571058105910521F464E279ED8BE587
:1041000097E02DE133EF41E050E00E94E5244901C2
:104110005A019B01AC01A7EAB1E40E9408206B019F
:104120007C01ACEEB4EFA50194010E94D024C60E30
:10413000D71EE81EF91EF7FE06C081E0C81AD10896
:10414000E10880E8F80AC882D982EA82FB82C601C7
:104150009F77DF91CF91FF90EF90DF90CF90BF904E
:10416000AF909F908F9008950E946920089580E0FD
:1041700091E00E9469200895A0E0B0E080930001E2
:1041800090930101A0930201B093030108952F922F
:104190003F925F926F927F928F929F92AF92BF9267
:1041A000CF92DF92EF92FF920F931F93CF93DF9303
:1041B0008B01EA016115710521F0DB018C931196E9
:1041C0009C93209739F09E0122503109233231050A
:1041D00008F0FBC07C016701BFEFCB1ADB0A560178
:1041E000F7016080862D90E00E941922892B11F042
:1041F0007601F1CFFDE26F120AC0570182E0A80EEE
:10420000B11CD70111966C90772473940BC0BBE25C
:104210006B1207C05701E2E0AE0EB11CD701119638
:104220006C90712CCE018F7E892B89F4B0E36B12D8
:1042300022C0F50180818F7D883541F56180F2E0F3
:10424000AF0EB11C872D8260782EC0E1D0E0C8305F
:10425000D105F1F04CF4C230D10511F5C12CD12CAF
:10426000E12CB0E4FB2E2FC0CA30D10531F0C031B3
:10427000D10521F115C0209751F7CAE0D0E0ACEC90
:10428000CA2EDC2CEC2CACE0FA2E1DC02097F9F6DF
:10429000C8E0D0E0C12CD12CE12CF0E1FF2E13C0FE
:1042A00060E070E080E090E89E01442737FD409593
:1042B000542F0E94472069017A0105C0C12CD12CDE
:1042C000E12CE8E0FE2EF50160E020E030E0A901FD
:1042D0004E01AA2497FCA094BA2C1F0170ED572E12
:1042E000560CA9E0A51570F48FEB860D8A3118F4F1
:1042F00099EC592E06C08FE9860D8A3130F589EA8E
:10430000582E560C852D90E08C179D07F4F467FD10
:1043100018C0C216D306E406F50680F0C501B40144
:104320000E94D5249B01AC01250D311D411D511D5D
:10433000213031054105B0E85B0710F06FEF01C097
:1043400061E03196D1016C90C8CF872D8170011545
:10435000110571F0662329F03197D801ED93FC9394
:1043600007C071FE19C03297D801ED93FC9314C0B9
:1043700067FF12C0882329F020E030E040E050E8D9
:1043800004C02FEF3FEF4FEF5FE782E290E09093A2
:104390006A068093690616C0882341F050954095BF
:1043A000309521953F4F4F4F5F4F0CC057FF0AC0CC
:1043B00082E290E090936A06809369062FEF3FEFC8
:1043C0004FEF5FE7B901CA0104C060E070E080E030
:1043D00090E0DF91CF911F910F91FF90EF90DF90D0
:1043E000CF90BF90AF909F908F907F906F905F9095
:1043F0003F902F900895FC0188279927E8942191F8
:104400002032E9F3293010F02E30C8F32B3241F07E
:104410002D3239F4689404C00E942822820F911D25
:10442000219120532A30C0F31EF4909581959F4F1F
:104430000895911109C2803219F089508550D0F742
:104440000895FB01DC0101900D920020E1F7089531
:104450007AE0979F902D879F802D910D11240895CC
:10446000AEE0B0E0E6E3F2E20C9412250D891E897D
:1044700086E08C831A8309838FEF9FE79E838D8369
:10448000AE01475E5F4F6F89788DCE0101960E9425
:104490005222EF81F885E00FF11F10822E96E4E0A2
:1044A0000C942E25ACE0B0E0E8E5F2E20C94042593
:1044B0007C016B018A01FC0117821682838181FFD6
:1044C000BDC1CE0101964C01F7019381F60193FD28
:1044D000859193FF81916F01882309F4ABC18532E7
:1044E00039F493FD859193FF81916F01853229F411
:1044F000B70190E00E943D24E7CF512C312C20E001
:104500002032A0F48B3269F030F4803259F08332DB
:1045100069F420612CC08D3239F0803339F4216088
:1045200026C02260246023C0286021C027FD27C048
:1045300030ED380F3A3078F426FF06C0FAE05F9E7F
:10454000300D1124532E13C08AE0389E300D1124F3
:10455000332E20620CC08E3221F426FD6BC1206404
:1045600006C08C3611F4206802C0883641F4F6018A
:1045700093FD859193FF81916F018111C1CF982F98
:104580009F7D9554933028F40C5F1F4FFFE3F98310
:104590000DC0833631F0833771F0833509F05BC08D
:1045A00022C0F801808189830E5F1F4F4424439409
:1045B000512C540115C03801F2E06F0E711CF80146
:1045C000A080B18026FF03C0652D70E002C06FEFB0
:1045D0007FEFC5012C870E9432242C0183012C859A
:1045E0002F77222E17C03801F2E06F0E711CF801F0
:1045F000A080B18026FF03C0652D70E002C06FEF80
:104600007FEFC5012C870E9427242C012C85206870
:10461000222E830123FC1BC0832D90E048165906EF
:10462000B0F4B70180E290E00E943D243A94F4CFC8
:10463000F50127FC859127FE81915F01B70190E08C
:104640000E943D2431103A94F1E04F1A5108411470
:10465000510471F7E5C0843611F0893639F5F80157
:1046600027FF07C060817181828193810C5F1F4F9A
:1046700008C060817181882777FD8095982F0E5F33
:104680001F4F2F76B22E97FF09C090958095709599
:1046900061957F4F8F4F9F4F2068B22E2AE030E008
:1046A000A4010E946F24A82EA81844C0853729F4BD
:1046B0002F7EB22E2AE030E025C0F22FF97FBF2EE8
:1046C0008F36C1F018F4883579F0B4C0803719F00E
:1046D000883721F0AFC02F2F2061B22EB4FE0DC05D
:1046E0008B2D8460B82E09C024FF0AC09F2F9660CE
:1046F000B92E06C028E030E005C020E130E002C05D
:1047000020E132E0F801B7FE07C06081718182814B
:1047100093810C5F1F4F06C06081718180E090E043
:104720000E5F1F4FA4010E946F24A82EA818FB2D16
:10473000FF77BF2EB6FE0BC02B2D2E7FA51450F495
:10474000B4FE0AC0B2FC08C02B2D2E7E05C07A2C08
:104750002B2D03C07A2C01C0752C24FF0DC0FE0147
:10476000EA0DF11D8081803311F4297E09C022FFFA
:1047700006C07394739404C0822F867809F07394F2
:1047800023FD13C020FF06C05A2C731418F4530CD9
:104790005718732C731468F4B70180E290E02C87EB
:1047A0000E943D2473942C85F5CF731410F43718B0
:1047B00001C0312C24FF12C0B70180E390E02C87A8
:1047C0000E943D242C8522FF17C021FF03C088E5ED
:1047D00090E002C088E790E0B7010CC0822F867895
:1047E00059F021FD02C080E201C08BE227FD8DE27D
:1047F000B70190E00E943D24A51438F4B70180E38E
:1048000090E00E943D245A94F7CFAA94F401EA0D57
:10481000F11D8081B70190E00E943D24A110F5CFE9
:10482000332009F451CEB70180E290E00E943D248C
:104830003A94F6CFF7018681978102C08FEF9FEF00
:104840002C96E2E10C942025992788270895FC01F5
:104850000590615070400110D8F7809590958E0FAB
:104860009F1F0895FC016150704001900110D8F71E
:10487000809590958E0F9F1F08950F931F93CF9350
:10488000DF93182F092FEB018B8181FD03C08FEF80
:104890009FEF20C082FF10C04E815F812C813D813F
:1048A000421753077CF4E881F9819F012F5F3F4F46
:1048B00039832883108306C0E885F985812F0995FF
:1048C000892B29F72E813F812F5F3F4F3F832E8316
:1048D000812F902FDF91CF911F910F910895FA01B1
:1048E000AA27283051F1203181F1E8946F936E7F2F
:1048F0006E5F7F4F8F4F9F4FAF4FB1E03ED0B4E020
:104900003CD0670F781F891F9A1FA11D680F791F60
:104910008A1F911DA11D6A0F711D811D911DA11D71
:1049200020D009F468943F912AE0269F1124301981
:10493000305D3193DEF6CF010895462F4770405D1C
:104940004193B3E00FD0C9F7F6CF462F4F70405DCB
:104950004A3318F0495D31FD4052419302D0A9F726
:10496000EACFB4E0A6959795879577956795BA9520
:10497000C9F700976105710508959B01AC010A2EE6
:1049800006945795479537952795BA95C9F7620FBD
:10499000731F841F951FA01D0895B7FF0C94082056
:1049A0000E940820821B930B0895DB018F939F9335
:1049B0000E940820BF91AF91A29F800D911DA39FDF
:1049C000900DB29F900D11240895052E97FB1EF4B3
:1049D00000940E94FC2457FD07D00E94472007FC4A
:1049E00003D04EF40C94FC245095409530952195BD
:1049F0003F4F4F4F5F4F089590958095709561950B
:104A00007F4F8F4F9F4F08952F923F924F925F920B
:104A10006F927F928F929F92AF92BF92CF92DF92CE
:104A2000EF92FF920F931F93CF93DF93CDB7DEB733
:104A3000CA1BDB0B0FB6F894DEBF0FBECDBF0994C7
:104A40002A88398848885F846E847D848C849B841E
:104A5000AA84B984C884DF80EE80FD800C811B812C
:104A6000AA81B981CE0FD11D0FB6F894DEBF0FBE5B
:0A4A7000CDBFED010895F894FFCFCB
:084A7A000100000025640000AA
:00000001FF
