:100000000C94BA040C94DB050C94D7040C94D7041C
:100010000C94D7040C94D7040C94D7040C94D704F4
:100020000C94D7040C944A050C94D7040C94D70470
:100030000C94D7040C94D7040C94D7040C94D704D4
:100040000C94D7040C94D7040C94D7040C94D704C4
:100050000C94D7040C94D7040C94D7040C94D704B4
:100060000C94D7040C94D70400000000000000009A
:10007000000000000000A8000000000000C92100EE
:100080000000DFDBD4D6220000D1D7C2D33BB900B9
:100090000020CCC0C5CA250000D2C8D0CFCD3A00C0
:1000A0000000DCCEC33F2A0000C1CBD8D9292800EC
:1000B00000DE2CC4C6C75F000000DD00D52B0000A9
:1000C00000000DDA002F00000000000000007F009B
:1000D0000031003437000000302E323536381B0036
:1000E000002B332D2A390000000000000000000022
:1000F00000000000000000000000B8000000000048
:1001000000E931000000FFFBF4F6320000F1F7E2F5
:10011000F33433000020ECE0E5EA350000F2E8F0CB
:10012000EFED36000000FCEEE337380000E1EBF8BD
:10013000F930390000FE2EE4E6E72D000000FD0056
:10014000F53D000000000DFA005C0000000000001A
:1001500000007F000031003437000000302E3235BF
:1001600036381B00002B332D2A3900000000000018
:1001700000000000000000000000000000007E0001
:10018000000000000051210000005A534157400078
:10019000004358444524230000205646545225006D
:1001A000004E424847595E0000004D4A55262A003D
:1001B000003C4B494F292800003E3F4C3A505F001D
:1001C000000022007B2B000000000D7D007C000061
:1001D0000000000000007F00003100343700000004
:1001E000302E323536381B00002B332D2A390000D3
:1001F00000000000000000000000000000000000FF
:1002000000006000000000000071310000007A73FF
:1002100061773200006378646534330000207666CD
:1002200074723500006E62686779360000006D6A8E
:1002300075373800002C6B696F303900002E2F6C39
:100240003B702D00000027005B3D000000000D5DAD
:10025000005C00000000000000007F00003100345E
:1002600037000000302E323536381B00002B332D7E
:100270002A390000000000004F6B00000000000061
:10028000000000000000000000000000453A457238
:10029000726F72000000000000000000000000000B
:1002A000453A616C6C6F63206D656D000000000065
:1002B00000000000453A474F535542207374616374
:1002C0006B206F76666C0000453A52455455524E8D
:1002D00020772F6F20474F5355420000453A464F35
:1002E00052206C696D697473206F7666000000009F
:1002F000453A4E45585420772F6F20464F52000004
:1003000000000000453A476F746F20746F206E6FD5
:100310007768657265000000496E74657272757069
:100320007465640000000000000000004D6F7265FD
:100330003F0000000000000000000000000000007E
:10034000436F6D6D616E647300000000000000007B
:100350000000000046756E6374696F6E73000000E4
:10036000000000000000000053544F500000000047
:100370000000000000000000000000003C416C7420
:100380003E0000000000000000000000000000002F
:100390006202B96303B76311B86602E46712E867E3
:1003A00002E76801BA6902E26912E16C02ED6C12BF
:1003B000C06C01B16C13B36D03B66E01B26E02E591
:1003C0006F02C17012EE7002E07202EC7212E972FA
:1003D00001B07303B57312EA6904F16914F272048F
:1003E000F3200000494E000000000000F14E000024
:1003F000000000494E4B4559000000F2000000008B
:100400000000524E440000000000F3000000000015
:1004100000000000000000000000000000000000DC
:100420005052494E54000000E04D000000000049C9
:100430004E505554000000E15600000000004946AF
:10044000000000000000E2451143000000474F5447
:100450004F00000000E7450000000000464F52003A
:1004600000000000E4563D451045004E455854003C
:10047000000000E5560000000000474F53554200C1
:100480000000E845000000000052455455524E005F
:1004900000E900000000000052454D00000000008F
:1004A000EC4100000000004C45540000000000ED4D
:1004B000563D450000004C4F434154450000C045A7
:1004C0002C450000004245455000000000B9452C75
:1004D000450000004F55540000000000C14E2C455F
:1004E00000000053544F5000000000EA00000000DC
:1004F00000005041555345000000EE45000000004B
:100500000048454C5000000000BA410000000000C7
:1005100052554E0000000000B00000000000004DE9
:10052000454D0000000000B6000000000000434CF4
:10053000530000000000B7000000000000434C45DD
:100540004152000000B80000000000004C49535424
:1005500000000000B16E00000000004E4557000092
:10056000000000B20000000000004C4F41440000B9
:100570000000B35300000000005341564500000046
:1005800000B5530000000000000000000000000063
:1005900000000000000000E3EE7BE1D4D4E3C89B40
:1005A000BDF7B2EBA8709F7D960C8E13868C7E1BD8
:1005B0001A1D28292A2B2D2F3C3D3E003E3D0000D0
:1005C000001A3C3D0000001B3C3E0000001D544F43
:1005D000000000105448454E0011000000000000CB
:1005E0002020204156522042415349432076302E4C
:1005F000310A2843296F6C65677665646940676DC9
:1006000061696C2E636F6D0A6D61782070726F671F
:1006100072616D2073697A653A0A31323030206236
:100620002E206F7220323535206C6E2E0A6C697365
:1006300074206F6620636F6D6D616E64733A0A4853
:10064000454C50205B637C665D00000000000000AC
:10065000005F00000007000700147F147F14242AA5
:100660007F2A124C2C10686436495522500005032D
:100670000000001C2241000041221C0014083E081A
:100680001408083E08080000503000101010101028
:10069000006060000020100804023E5149453E0001
:1006A000427F400042615149462141454B31181477
:1006B000127F1027454545393C4A494930017109A7
:1006C00005033649494936064949291E0036360090
:1006D00000005636000008142241001414141414AB
:1006E00000412214080201510906324979413E7E37
:1006F0001111117E7F494949363E414141227F41D6
:1007000041221C7F494949417F090909013E41496C
:10071000497A7F0808087F00417F41002040413F1F
:10072000017F081422417F404040407F020C027F3D
:100730007F0408107F3E4141413E7F090909063E82
:100740004151215E7F091929464649494931010134
:100750007F01013F4040403F1F2040201F3F403865
:10076000403F631408146307087008076151494546
:1007700043007F41410002040810200041417F00F6
:1007800004020102044040404040000102040020F5
:10079000545454787F4844443838444444203844BE
:1007A00044487F3854545418087E0901020C5252B0
:1007B000523E7F0804047800447D40002040443DC0
:1007C000007F1028440000417F40007C041804781A
:1007D0007C0804047838444444387C141414080811
:1007E0001414187C7C080404084854545420043F12
:1007F0004440203C4040207C1C2040201C3C403099
:10080000403C44281028440C5050503C4464544C04
:1008100044000836410000007F0000004136080017
:100820000804081008FFFFFFFFFF04060706041076
:10083000307030107C1211127C7F494949317F4958
:100840004949367F01010101603F213F607F4949ED
:10085000494177087F087722414949367F100804CB
:100860007F7E1009047E7F08142241403E01017FF3
:100870007F020C027F7F0808087F3E4141413E7F96
:100880000101017F7F090909063E41414122010121
:100890007F0101074848483F0E117F110E6314087D
:1008A00014633F20203F60070808087F7F407E4098
:1008B0007F3F203F207F017F4848307F4830007FC6
:1008C000007F484830224149493E7F083E413E462C
:1008D0002919097F20545454783C4A4A4A317C549F
:1008E0005428007C04040C00603C243C60385454C0
:1008F00054186C107C106C00445454287C20100850
:100900007C7C2112097C7C10284400403804047C43
:100910007C0810087C7C1010107C38444444387CDF
:100920000404047C7C141414083844444400040473
:100930007C04040C5050503C08147C1408442810CB
:1009400028443C20203C600C1010107C7C407C40F3
:100950007C3C203C207C047C5050207C5020007C3F
:10096000007C50502028445454387C103844384877
:100970005434147C11241FBECFEFD8E0DEBFCDBFAE
:1009800011E0A0E0B1E0EAEEF9E402C005900D92BA
:10099000A830B107D9F716E0A8E0B1E001C01D9278
:1009A000AB36B107E1F70E94C41C0C94F3240C94FD
:1009B000000090910906803F19F46095692301C0F9
:1009C000692B6093090608958EEB95E09093C50519
:1009D0008093C4059093C7058093C6051092C30504
:1009E0000895E9E6F0E080818260808380818E7FD7
:1009F00080831092CA058BE08093C9051092CC05C4
:100A00001092CB050895E898539852985B985A989D
:100A10000E94F1040E94E404E0E7F0E0808181603C
:100A200080831092C805E89A08958091C3058823B1
:100A3000E1F3E091C405F091C505CF0101969093D3
:100A4000C5058093C405E081835C954030F08EEB52
:100A500095E09093C5058093C4058091C3058150AE
:100A60008093C30590910906892F8470F0E093FF6D
:100A700008C0882319F0E859FF4F0AC0E451FF4F1E
:100A800007C0882319F0E059FE4F02C0EC50FE4F1A
:100A9000849108951F920F920FB60F921124109215
:100AA000B1001092B2000F900FBE0F901F901895DA
:100AB000CF93E89852985398529AE0EEF1E031972C
:100AC000F1F7539AE0E5F0E03197F1F75298E8EC4E
:100AD000F0E03197F1F71092B20097E09093B100F7
:100AE00030E090E041E04A9B04C02091B100211128
:100AF000FACF983068F4582F51702AB180FF02C0A5
:100B0000277F01C028602AB95111342786952AC051
:100B1000983041F42AB130FD02C0277F01C028601F
:100B20002AB920C0539852989A30E1F44B9B04C0E4
:100B30008091B1008111FACF8091B1004B9B06C02A
:100B40004A9B04C09091B1009111F8CF9091B100EF
:100B5000992391F0C1E0811110C00EC02091B10025
:100B6000222311F04A9BFACF2091B100222321F0D9
:100B70009F5F9B3008F4B7CFC0E05398529881E054
:100B80008CBB0E94F1040E94E404E89A1092B10028
:100B9000CC2369F088EC90E00197F1F78091C305D0
:100BA000882329F00E94150591E08A3F09F090E022
:100BB000892FCF9108951F920F920FB60F92112493
:100BC0002F933F934F935F936F937F938F939F9355
:100BD000AF93BF93EF93FF938091CA0581111DC01E
:100BE0008091C9058B3080F48091C905833060F015
:100BF0008091CC0586958093CC054B9B05C0809158
:100C0000CC0580688093CC058091690081608093D9
:100C1000690081E08093CA056FC0809169008E7F72
:100C2000809369001092CA058091C9058150809314
:100C3000C9058091C90581115FC02091CC05203E76
:100C400018F02093CB0553C0243111F128F4213141
:100C500019F1223129F12CC0283519F0293501F17B
:100C600027C08091CB05803F01F18DEE0E94580591
:100C70008091090683FF05C0877F8093090680E085
:100C800004C088608093090685E00E9458050DC065
:100C90008091CB0562E007C08091CB0561E003C085
:100CA0008091CB0564E00E94D9041092CB051FC04F
:100CB0008091CB058111F9CF2737C8F4E091C605A3
:100CC000F091C705CF0101969093C7058093C605A3
:100CD00020832091C3052F5F2093C305835C95403B
:100CE00030F08EEB95E09093C7058093C605109287
:100CF000CC058BE08093C905FF91EF91BF91AF9137
:100D00009F918F917F916F915F914F913F912F9123
:100D10000F900FBE0F901F90189560E00C94B212C8
:100D2000CF93DF93EC018991882319F00E948D06FF
:100D3000FACFDF91CF9108950F931F93CF93DF9355
:100D400000D000D000D0CDB7DEB79F938F9384E062
:100D500091E09F938F938E010F5F1F4F1F930F930F
:100D60000E94E821C8010E9490060F900F900F90FA
:100D70000F900F900F9026960FB6F894DEBF0FBE1F
:100D8000CDBFDF91CF911F910F9108950F931F93C6
:100D9000CF93DF93CDB7DEB7AC970FB6F894DEBF35
:100DA0000FBECDBF8C01CE0101960E94E2178111CA
:100DB00021C0C8010E94541981111CC010923F0625
:100DC000AE01455D5F4F60E078E080E090E00E941A
:100DD000F21A182F80E20E948D0680913F0690E063
:100DE0000E949C0680E090E00E94E21781E01111D1
:100DF00001C080E0AC960FB6F894DEBF0FBECDBF49
:100E0000DF91CF911F910F9108958091C3058823A1
:100E1000A1F00E941505833689F49091090691FF8F
:100E20000DC02BE088E190E00FB6F894A895809370
:100E300060000FBE20936000FFCF80E008958DE03A
:100E40000C948D0661E08091D0050C94B212109242
:100E5000E8050C944912CF92DF92EF92FF92CF9364
:100E6000DF939C01E62FE05DE83708F055C08E2F38
:100E70006CE00E94CB1F9CE0899FE0191124F0E0F8
:100E8000EE0FFF1FE956FA4F45915491882339F030
:100E9000815062E0882321F0660F8150FBCF61E032
:100EA00070E0CA010E94D71FEB01A8EEB3E00E94D8
:100EB000B11F9E0140E050E00E94FF1F69017A01CE
:100EC0009E0136952795209AA0EABFE00E94B11FA7
:100ED00028EE33E040E050E00E94FF1FC114D1042F
:100EE000E104F104C1F0289A2115310511F400C084
:100EF00003C0C9010197F1F728982115310511F4B4
:100F000000C003C0C9010197F1F781E0C81AD108F8
:100F1000E108F108E3CF2098DF91CF91FF90EF90A7
:100F2000DF90CF900895CF930E94E4040E940507BC
:100F3000C82F8823D9F36EE18AE090E00E942B0746
:100F40008C2FCF910895CF93DF93EC01FE01849114
:100F5000882321F00E948D062196F8CFDF91CF9152
:100F6000089598E028E030E087FD02C02B9801C08A
:100F70002B9A880F2D9AF9013197F1F72D989150FE
:100F800099F708952B9A98E080E024E030E02D9ABC
:100F9000F9013197F1F7880F1C9981602D98F901BB
:100FA0003197F1F7915099F7089597B1936097B9F8
:100FB00098B1936098B998B18095892388B90895BC
:100FC000FF920F931F93CF93DF93C82FD42F152F2A
:100FD000062FF72E87FF09C040E050E0BA0187E7EF
:100FE0000E94E007823060F5CF7780E00E94D5074D
:100FF0000E94C20782E00E94D5070E94C2078C2F80
:101000000E94B1078F2D0E94B107802F0E94B10767
:10101000812F0E94B1078D2F0E94B107C03421F0AB
:10102000C83421F081E003C085E901C087E80E944F
:10103000B107C4E60E94C20787FF02C0C150D1F7C2
:10104000DF91CF911F910F91FF90089587E690E077
:101050000E94221585B1886185B92D9884B1886276
:1010600084B9249880E00E94D5070E94F0118FEA8D
:101070000E94E31187E00E945A1285EA0E94E31160
:101080000E94491282E390E00E94811684EA0E9445
:10109000E3110E94030578940895811102C00C9415
:1010A000351580E00895811103C0862F0C942C150E
:1010B0000895CF93C82F611107C00E941F07809128
:1010C0003F0690E00E949C068AE30E948D0624E180
:1010D000C29FC001112488589D4FCF910C94A30743
:1010E000E8E0F1E080E090E04081442351F0242FDB
:1010F0002F7730E047FD02C0820F931FE20FF31FEE
:10110000F3CF08959FEF980F9E3788F5E8E0F1E060
:1011100040E050E0682F70E090819923C1F0A92F42
:10112000AF772A2F30E0420F531F97FF0DC0621791
:10113000730714F0A11102C0A1931BC0DF01A20F1D
:10114000B31F9C91903819F0E20FF31FE5CF282FC1
:1011500030E0420F531F403B54404CF48F5F80837C
:10116000DF01A20FB31F11961C92319602C0E0E07E
:10117000F0E0CF010895FC013197892B59F080816F
:10118000DF01A80FB11D9C91911102C0108208953A
:10119000806880830895E091BA05F091BB0530978F
:1011A00071F09281981738F0891748F4611107C0DF
:1011B000E0E0F0E004C00190F081E02DF0CFCF013D
:1011C000089560E00E94CB08009761F12091B80576
:1011D0003091B9058217930721F41092B905109246
:1011E000B805E091BA05F091BB058E179F0771F421
:1011F000DC012D913C913093BB052093BA050EC0C4
:10120000208131812817390721F0F9013097C1F782
:1012100005C0DC012D913C91318320830E94BB08E5
:1012200081E0089580E008958D5F0E948208FC01AE
:10123000009719F011821082089560E082E00E9408
:10124000590880E090E00895DF92EF92FF920F93AB
:101250001F93CF93DF937C01D62EFC0101900020D9
:10126000E9F7CF018E190E941409EC01009791F162
:10127000E091BA05F091BB053097E1F000E010E095
:1012800082818D1108C08081918199838883CF01EB
:101290000E94BB080CC0D81618F4F983E88307C075
:1012A000808191818F01009711F0FC01E9CF011538
:1012B000110529F4D093BB05C093BA0503C0F8010A
:1012C000D183C083DA82B701CE0103960E94D9216F
:1012D000CE0102C080E090E0DF91CF911F910F918D
:1012E000FF90EF90DF9008950E94270710920A0662
:1012F000EBE0F6E01192119286E0EF33F807D1F7B8
:1013000008950E947409109208011092BB05109272
:10131000BA050895FC01CF012191222319F026136B
:10132000FACF02C080E090E00895282FFC018E2FB4
:10133000821BDF019191992321F09613F8CF4C93F2
:10134000089580E00895FC012081818190ED920F45
:101350009731A8F42A3310F099EC920F20ED280F62
:10136000273128F48A3328F029EC280F02C0292FCE
:1013700090E0F0E19F9FC0011124822B089580E04E
:101380000895FC019081892F82958F7020E1829FC2
:10139000901911248A3010F0895C01C0805D9A3068
:1013A00010F0995C01C0905D808391831282089552
:1013B00090E0E92FF0E0E155FA4FE491EE2321F0BF
:1013C000E81791F09F5FF5CF9FEB980F9A3170F07F
:1013D00090ED980F9A3020F0803F20F084E008953F
:1013E00083E0089580E0089581E0089582E0089503
:1013F0009091090691709295907F7091E80560E058
:10140000462F50E09A01220F331F240F351FF90198
:10141000EE56FC4F44914423A1F0F901E057FC4FF4
:10142000E491E8130CC0F901EF56FC4F2491322FE0
:10143000372329F0207F291302C0842F08956F5F7E
:10144000DFCF80E0089590E046E0499F90011124AD
:10145000F901EF53FA4FE491EE2349F08E1305C0E2
:10146000C90184549A4F0C94A3079F5FEECF08954F
:10147000AF92BF92CF92DF92EF92FF920F931F93A2
:10148000CF93DF93EC01E62E009779F4E091B80555
:10149000F091B905828190E00E949C06C091B80548
:1014A000D091B9052396EE24EA94B12CF12CCC24EA
:1014B000C394FFE0DF2EFE01EF0DF11D108111231B
:1014C00009F45AC0AB2CAC2480E5810F803408F5B8
:1014D000AA20F9F080E20E948D0600E0D09EC001B3
:1014E0001124FC01E85DFB4FA490AA2049F0A11251
:1014F00005C0805E9B4F0E94A30702C00F5FEECF26
:1015000080E20E948D06BB24B3948CEEA81218C012
:101510002DC0103FB8F0AA20A9F000E0D09EC00175
:101520001124FC01E451FC4FE491EE2349F0E11356
:1015300005C08C519C4F0E94A30702C00F5FEECFE5
:10154000B12C14C080EF810F803150F480E20E94F2
:101550008D06812F0E94230A80E20E948D0606C01C
:10156000812F0E948D06123209F4BA2CEF1002C0AE
:101570000E942207F3949FCFEF1002C00E9422071F
:10158000802FDF91CF911F910F91FF90EF90DF900F
:10159000CF90BF90AF900895CF93DF93D82FC09195
:1015A000D1050E941F078EE30E948D0680913F06A1
:1015B000882331F090E00E949C0680E20E948D0614
:1015C0006D2F89EE95E00E94380A8091D105C813ED
:1015D000C093D105DF91CF910895811108C089EEA4
:1015E00095E00E94A309882389F022E001C020E051
:1015F00030E0682FC90187519A4F0E9424099093C7
:10160000B9058093B80521E0892B09F020E0822FED
:101610000895CF92DF92EF92FF920F931F93CF9393
:10162000DF93EC0179018091CD0583FD07C089E04E
:10163000440F551F661F771F8A95D1F781E50E94D9
:10164000E007882311F0C1E066C0B0E3CB2EB5E718
:10165000DB2E0E94C2078F3F39F481E0C81AD108FF
:10166000C114D104B1F7EFCF8E3F69F7A2E0CA2EC3
:10167000DC2CC01AD10ACE18DF08E114F10419F4E9
:10168000209739F40FC00E94C20781E0E81AF108E0
:10169000F4CF0E94C2078993015011090115110569
:1016A000C1F730C0D0E0C0E00E94C207882311F02B
:1016B000CC2341F0015011090115110521F10E94BF
:1016C000C207F8CF2D2F30E0F901E751FA4F8A30E9
:1016D00069F4108280E00E94ED0AC82F81110BC0CE
:1016E00080913F068F5F80933F0605C08083DD3188
:1016F00018F4DF5F01C0D0E0015011090115110598
:1017000099F601C0C0E00E94C20781E0C81AD10862
:10171000C114D104C1F780E00E94D5070E94C2071E
:101720008C2FDF91CF911F910F91FF90EF90DF9061
:10173000CF900895CF93DF93EC018A818093E905E0
:1017400089EE95E00E94C109BE016D5F7F4F8BEE6F
:1017500095E0DF91CF910C94D921EF92FF920F93F6
:101760001F93CF93DF93892B09F444C07A01C0E023
:10177000D0E0EC16FD0609F487C00091BC0510917D
:10178000BD050115110509F47FC08091B805909140
:10179000B905892B21F1E0913F06F0E0E751FA4FBE
:1017A0008081882341F00E94B10780913F068F5FBE
:1017B00080933F0617C08AE00E94B10710923F064F
:1017C000E091B805F091B905808191819093B905B8
:1017D0008093B805009731F00E949A0B03C080E017
:1017E0000E94B107015011091093BD050093BC057B
:1017F0002196BFCF4115510561057105E9F0809132
:10180000CD0583FD07C099E0440F551F661F771F64
:101810009A95D1F788E50E94E007811137C08FEFD4
:101820000E94B1078EEF0E94B10780E092E0909392
:10183000BD058093BC0528C0C091BC05D091BD05F5
:10184000CE3F8FEFD80729F080E00E94B1072197A3
:10185000F7CF0E94C2078F71853011F011E00EC0E2
:10186000C8EEDDEF0E94C2078F3F21F02097B1F351
:101870002197F8CF11E0CD2B09F010E080E00E9415
:10188000D5070E94C20703C010E001C011E0812FFC
:10189000DF91CF911F910F91FF90EF900895EF92FC
:1018A000FF920F931F93CF93DF9300D000D01F922E
:1018B000CDB7DEB780E00E94D507419907C040E070
:1018C00050E0BA0180E090E00E94AD0B14E60E9467
:1018D000C2071150E1F740E050E0BA0180E40E94F5
:1018E000E007813009F058C04AEA51E060E070E05A
:1018F00088E40E94E007813031F57E0185E0E80E42
:10190000F11C8E010F5F1F4F0E94C207F8018193E7
:101910008F01EE15FF05C1F78B818130E9F58C81D0
:101920008A3AD1F500EE1EE240E050E060E070E45B
:1019300089EE0E94E0078823E1F1015011090115A9
:10194000110591F729C040E050E0BA0189EE0E94EC
:10195000E007823020F432E0F32E99EE03C0FF243A
:10196000F39491E408EA11E640E050E0BA01892FCF
:101970009D830E94E0079D81882331F00150110969
:101980000115110589F708C040E052E060E070E001
:1019900080E50E94E0078111F12CF092CD0580E0F6
:1019A0000E94D5070E94C20781E0FF20F1F080E08D
:1019B0001CC040E050E0BA018AE70E94E0078111B4
:1019C000EBCF8E010F5F1F4F0E94C207F80181937A
:1019D0008F01EE15FF05C1F7898186FF03C04CE03A
:1019E000F42EDBCF24E0F22ED8CF0F900F900F9083
:1019F0000F900F90DF91CF911F910F91FF90EF907B
:101A000008950F931F93CF93DF93CDB7DEB7AC97B5
:101A10000FB6F894DEBF0FBECDBF8C012091BA0582
:101A20003091BB053093B9052093B805232B61F1A4
:101A3000CE0101960E94E217811127C0C8010E94C1
:101A40005419811122C08091B8059091B9050E9466
:101A50009A0B10923F06AE01455D5F4F60E078E063
:101A600089EE95E00E94C41B182FAE01455D5F4FC3
:101A700060E070E080E090E00E94C41B80E090E0B5
:101A80000E94E217812F01C080E0AC960FB6F89457
:101A9000DEBF0FBECDBFDF91CF911F910F91089593
:101AA0008F929F92AF92BF92CF92DF92EF92FF926E
:101AB0000F931F93CF93DF9300D0CDB7DEB74C01C8
:101AC000E12CF12C00E010E05FE3B52E6FE0A62ED4
:101AD0007FE6C72EB092D005F401308180E5830FF8
:101AE000803408F0E4C020E0A29EC0011124FC0173
:101AF000E85DFB4FE491EE2341F0E31304C08C0159
:101B0000075D1B4F02C02F5FEFCFFFEF8F1A9F0AB9
:101B1000F8012491922FD12CF4013081332309F460
:101B2000A9C0992309F4A1C09D3479F4233509F49F
:101B300082C0233419F1253471F1323209F47DC0A9
:101B400080E5830F8034D0F026C09E3409F45DC058
:101B500060F4933499F09534F1F0913409F077C042
:101B60008FE48093D00583E5ADC0963569F09E364D
:101B700009F449C0933509F06AC05DC0305B303468
:101B800008F4A8CF23E476C031543A3108F074C089
:101B90000F5F1F4F43C0832F3A8399830E94D80958
:101BA0003A819981882309F1383211F4D39403C022
:101BB000393209F4DA94E114F10409F474018FEB79
:101BC000830F8A3138F4F4013197808181548A314E
:101BD00008F44DC0D11005C03D3319F0C092D005B6
:101BE00002C09093D00595E438C0EF2809F43FC0B7
:101BF0008091D0058F36D9F50F5F1F4FF1E08F1A16
:101C0000910895E415C0C092D005F40180818053FD
:101C10008A3038F4E114F10409F47401C092D0055B
:101C20001CC0EF2849F10F5F1F4FF1E08F1A910898
:101C3000E12CF12C12C0323231F4D1103CC093E5CA
:101C4000DD24D3940AC0DD20A1F093E506C0F401A1
:101C500090830F5F1F4F9093D005FFEF8F1A9F0A5D
:101C6000F8018491292F982F57CF20E006C025E452
:101C700001C023E59D3409F0292FF40180818111F1
:101C800012C08091D005911103C0863439F411C07F
:101C90008F3631F4F8019181911106C08FE404C0B0
:101CA0002093D00506C086E48093D00502C086E468
:101CB00009C0822F07C00F5F1F4FC092D00593E568
:101CC000D12CCBCF0F900F90DF91CF911F910F911F
:101CD000FF90EF90DF90CF90BF90AF909F908F904C
:101CE0000895FF920F931F93CF93DF938C01FC0114
:101CF00010820E941F078AE30E948D06E8010E945D
:101D00009307F82EFBE18F1305C08E010F5F1F4F65
:101D100088831AC08DE0F816B9F0EFE7FE1205C00F
:101D20000C171D0738F4219705C08F2D0E94D80984
:101D30008111F99218820E941F078AE30E948D0682
:101D4000C8010E949006DBCFC017D10719F480E3C9
:101D5000888319828AE00E948D068F2DDF91CF91B2
:101D60001F910F91FF900895CF93DF93C1E0D0E0D2
:101D7000E091D205F091D3052081203FB0F1223FC0
:101D800019F1233F51F1213F09F065C0CF010196C0
:101D90009093D3058093D2058181883209F05BC08E
:101DA0003296F093D305E093D2050E940310209160
:101DB000D2053091D3052F5F3F4F3093D305209349
:101DC000D2050E944D0807C03196F093D305E093E9
:101DD000D2050E94050790E040C03196F093D305EC
:101DE000E093D2050E946F2038C02D3249F431961D
:101DF000F093D305E093D205D195C195D109B8CF21
:101E000080ED820F8A3048F440E050E062ED75E0EA
:101E1000CF010E947F20CB0120C0CF01019690937B
:101E2000D3058093D205283269F40E9403102091D3
:101E3000D2053091D3052F5F3F4F3093D3052093C8
:101E4000D2050BC0E081F0E0EE0FFF1FE757FA4F1D
:101E50008081918102C080E090E09C01C29FC0011E
:101E6000C39F900DD29F900D1124DF91CF910895C3
:101E70000F931F93CF93DF93C1E0D0E00E94B40E85
:101E80008C01E091D205F091D305CF01019690939A
:101E9000D3058093D20580818A3249F08F3281F454
:101EA0000E94380FBC01C8010E94EB1F0EC0CE017A
:101EB000809FE001819FD00D909FD00D1124DECF37
:101EC000F093D305E093D205B801C69FC001C79F28
:101ED000900DD69F900D1124DF91CF911F910F91FE
:101EE00008950F931F93CF93DF9301E010E0C0E0BC
:101EF000D0E00E94380FE091D205F091D3059F0108
:101F00002F5F3F4F3093D3052093D2052081AC0142
:101F1000049FC001059F900D149F900D11242B323A
:101F200029F02D3231F4119501951109C80FD91FEF
:101F3000E0CFF093D305E093D2058C0F9D1FDF9186
:101F4000CF911F910F910895CF93DF930E94710F4E
:101F5000EC01E091D205F091D305CF010196909369
:101F6000D3058093D20580818A3151F08B3199F469
:101F70000E94A40F31E020E08C179D074CF407C0AD
:101F80000E94A40F31E020E0C817D9070CF430E01C
:101F9000832F922F05C0F093D305E093D205CE0195
:101FA000DF91CF910895CF93DF930E94A40FEC01AE
:101FB000E091D205F091D305CF0101969093D3051E
:101FC0008093D20580818C3319F08E3349F013C091
:101FD0000E94D30F31E020E0C817D9074CF007C0AA
:101FE0000E94D30F31E020E08C179D070CF030E009
:101FF000832F922F05C0F093D305E093D205CE0135
:10200000DF91CF910895CF93DF930E94D30FEC011E
:10201000E091D205F091D305CF0101969093D305BD
:102020008093D20580818D3151F08D3399F40E94D7
:10203000031031E020E0C817D90741F408C00E941E
:10204000031031E020E0C817D90709F430E0832FEE
:10205000922F05C0F093D305E093D205CE01DF9116
:10206000CF9108950F931F93CF93DF938AEE95E05E
:102070009093D3058093D2058091E905843E09F4BD
:102080002FC1A0F4813C09F47CC030F4893B49F1B4
:10209000803C09F451C07BC1813E09F48AC0823E74
:1020A00009F4A6C0803E09F072C1BEC0893E09F4A1
:1020B00004C148F4873E09F4D6C008F0E2C0853E6A
:1020C00009F443C164C18D3E21F18E3E09F4C6C0BE
:1020D0008A3E09F05CC11092B9051092B8058CE0F7
:1020E00057C16CE289EE95E00E948A09009709F4D5
:1020F0004EC1EC0119920E9403108C01D093D305BC
:10210000C093D2050E940310682FC8010E942B07BC
:102110003EC18CEE95E09093D3058093D205C0919B
:10212000EA05D0E0C154D1090E940310FE01EE0F70
:10213000FF1FE55FF94F06C16CE289EE95E00E9452
:102140008A09EC01009709F422C118820E94031049
:10215000853138F4982F990F980F990F9093400676
:1021600003C088E7809340062196D093D305C0939F
:10217000D2050E940310883008F087E08093D105D3
:1021800006C16CE289EE95E00E948A09009709F485
:10219000FEC0EC0119920E940310182FD093D305B2
:1021A000C093D2050E940310682F812F0E9453080C
:1021B000EEC0C091EA0589EE95E00E94710E809113
:1021C000E9058B3131F41092B9051092B80588E019
:1021D000DFC089EE95E09093D3058093D2050E94ED
:1021E0000310EC2FF0E0EE0FFF1FE757FA4FAAC0E5
:1021F00061E189EE95E00E948A09EC01009779F08F
:1022000018820E940310892B09F4C1C0BE016F5FC0
:102210007F4F89EE95E00E94D92182E0B9C01092EB
:10222000B9051092B805B1C08091EA05823271F407
:1022300040E062E28BEE95E00E9495098091D20524
:102240009091D30501960E94900604C00E9403104D
:102250000E949C068AE00E948D0699C00E9403108D
:102260000E94811694C00E94031060E00E94CB0877
:102270009093B9058093B805892B09F086C087E053
:1022800087C020910A06E091B805F091B9058081D8
:102290009181E22FF0E0EE0FFF1FEC52FA4F918395
:1022A000808381E0820F80930A068A30E0F21092E8
:1022B000B9051092B80583E06BC0E0910A06E11100
:1022C00006C01092B9051092B80584E061C0E150D3
:1022D000E0930A06F0E0EE0FFF1FEC52FA4F4FC0FA
:1022E00060E189EE95E00E948A09009709F497CF92
:1022F000EC0119928CEE95E09093D3058093D20572
:102300000091EA05015410E00E940310D801AA0FC1
:10231000BB1FA55FB94F8D939C93D093D305C093FA
:10232000D2050E940310F801EE0FFF1FEE0FFF1FF2
:10233000EF5BF94F93838283A091B805B091B90503
:102340008D919C919183808322C0E091EA05E154B4
:10235000F0E0DF01AA0FBB1FA55FB94F8D919C91E3
:10236000119701968D939C93EE0FFF1FEE0FFF1FA9
:10237000EF5BF94F228133812817390744F08081C0
:1023800091819093B9058093B80581E001C080E008
:10239000DF91CF911F910F910895809108068730AA
:1023A00080F01092080660E089E00E9459080E94BF
:1023B00093078B3121F40E941F0788E008950E9443
:1023C0001F0780E00895CF93C82F81E00E94D507B2
:1023D00042988C2F0E94B10780E0CF910C94D507D2
:1023E0003A9A88EC0E94771683EE0E94E31183EA02
:1023F0000E94E3118AE00E94771680EA0E94E311AE
:102400008AE00E94771688EC0E94E3118AE00E941D
:10241000771680E40E94E3118CE20E94E31182E3CC
:102420000E9477168EE20E94E3118CE30E947716D9
:102430008FE20E94E3118AE00E94771686E20E94F2
:10244000E31182E30C947716CF93C82F81E00E94AA
:10245000D507429A8C2F0E94B10780E0CF910C944F
:10246000D507CF93806B0E94E31180E10E94E311B6
:1024700080E00E94E31180EE0E94E311C0E080E062
:102480000E942412CF5FC038D1F710924006CF913E
:102490000895CF93C0E08C2F0E943112CF5FC830D7
:1024A000D1F71092400687E08093D10580E4CF9168
:1024B0000C94E311CF93C82F81E80E94E3118C2F75
:1024C0008F73CF910C94E311EF92FF921F93CF93F0
:1024D000DF9300D0CDB7DEB7182F862F806B4983EE
:1024E0005A830E94E311812F82958F7080610E9430
:1024F000E311812F8F700E94E31180EE0E94E3119F
:102500004981E42E5A81F52E16E0F70181917F0171
:102510000E9424121150C9F70F900F90DF91CF91B4
:102520001F91FF90EF9008951F93CF93DF931F9219
:10253000CDB7DEB7182F862F806B49830E94E31139
:10254000812F82958F7080610E94E311812F8F709F
:102550000E94E3114981842F0F90DF91CF911F9149
:102560000C9424121F93CF93DF93CDB7DEB7279738
:102570000FB6F894DEBF0FBECDBF182F8D3029F4F3
:102580008091D1050E94311259C02091400630E05F
:102590002B37310514F48A30E9F48091D1058F5F2F
:1025A0008093D105909108069F5F9093080688302C
:1025B00010F01092D1058091D105880F880F880FF7
:1025C000885F80646F830E94E3118091D1050E942F
:1025D00031126F81103290F1123810F4105205C090
:1025E000103C10F01E5501C010E025E0129FC00104
:1025F0001124DE01119620E030E0AD01865B994F99
:10260000FC01E20FF31FE4916111E095EC932F5F61
:102610003F4F11962530310599F7662319F08FEF5A
:102620008E8301C01E826091D105809140060E9478
:102630006412809140068A5F8093400627960FB609
:10264000F894DEBF0FBECDBFDF91CF911F910895EB
:1026500087FD1AC06034C0F420E4261B622F669503
:1026600066956695442369F030E020953095277093
:10267000332741E050E0022E01C0440F0A94EAF7EC
:1026800001C040E00C9494120895BF92CF92DF9263
:10269000EF92FF920F931F93CF93DF93C82FD62F04
:1026A000142FC02EA22FB0E0A61BB109B7FF03C0A4
:1026B000B195A195B109E12FF0E0EC1BF109F7FF0D
:1026C00003C0F195E195F109EE24E394EA17FB07C5
:1026D00014F0E12C06C0812F122F282F8C2FCD2F24
:1026E000D82F1C1730F48D2FD22F282F8C2FC12FCD
:1026F000182FD12EDC1AE22FF0E0ED1BF109F7FFC5
:1027000003C0F195E195F109BE2EFD2CF694D21788
:1027100010F401E00FC00FEF0DC04C2DEE2069F05A
:102720006C2F8D2F0E942813FB18F7FE02C0D00FCC
:10273000FD0CCF5FC11788F303C06D2F8C2FF2CF34
:10274000DF91CF911F910F91FF90EF90DF90CF908D
:10275000BF900895CF92DF92EF92FF920F931F9355
:10276000CF93DF93C62E182FC42FD0E0C80FD11DF2
:10277000E22EF12CE60EF11C212F30E02C173D0744
:102780007CF4DC2C2D2D30E02E153F053CF4402F41
:102790006D2D812F0E942813D394F4CF1F5FECCFAF
:1027A000DF91CF911F910F91FF90EF90DF90CF902D
:1027B0000895BF92CF92DF92EF92FF920F931F93F3
:1027C000CF93DF93182FD62EB42EC22FD82FE42EFE
:1027D000F12CE80EF11CCC24CA94C20EC60EED2FCB
:1027E000F0E0EE15FF0564F4402F6D2D8D2F0E9453
:1027F0002813402F6C2D8D2F0E942813DF5FEFCF01
:10280000FD2CD0E0CD0DD11DEE24EA94EB0CE10EB1
:102810002F2D30E02C173D0764F4402F6F2D812FB2
:102820000E942813402F6F2D8E2D0E942813F394A1
:10283000EFCFDF91CF911F910F91FF90EF90DF903D
:10284000CF90BF900895AF92BF92CF92DF92EF9258
:10285000FF920F931F93CF93DF93182F062FC22F52
:10286000EE24E394E41AD42EDD0CD194D42F642FFB
:10287000600F422F0E942813602F6D1B4C2F812F59
:102880000E9428134C2F602F8D2F810F0E94281338
:102890004C2F602F812F8D1B0E942813F12CFD16C9
:1028A0000CF044C0E7FC04C0D150D394D394ED0C99
:1028B000F3948F2D880F8F5FE80EAF2CA10E4C2F55
:1028C000BD2EB00E6B2D8A2D0E942813C12ECF185D
:1028D0004C2F6B2D8C2D0E9428134C2FB02EBD1A1F
:1028E0006B2D8A2D0E9428134C2F6B2D8C2D0E944E
:1028F0002813CF2CC00E4C2F6C2DAD2EA10E8A2D7F
:102900000E9428134C2F6C2DC12ECD1A8C2D0E94A5
:102910002813B02EBF184C2F6B2D8A2D0E94281320
:102920004C2F6B2D8C2D0E942813B9CFDF91CF91A6
:102930001F910F91FF90EF90DF90CF90BF90AF90DD
:1029400008956F927F928F929F92AF92BF92CF9293
:10295000DF92EF92FF920F931F93CF93DF93A82EF6
:10296000C62ED22EBB24B394B41A942E990C9194F3
:10297000F42EE62EE41AC62FD0E08E01040F111DAE
:10298000EE2DF0E00E171F073CF04D2D6E2D8A2D19
:102990000E942813E394F4CFE12CEF140CF043C011
:1029A000B7FC04C0FA9493949394B90CE3948E2DDD
:1029B000880F8F5FB80E8C2C8F188E010F0D111D94
:1029C000F7FC1A956E2C6A0C7A2C7E18E82DF0E034
:1029D0000E171F0764F04D2D682D862D0E942813B9
:1029E0004D2D682D872D0E9428138394EFCF8C2CBA
:1029F0008E188E010E0D111DE7FC1A956F2C6A0CB6
:102A00007A2C7F18E82DF0E00E171F0734F24D2DB9
:102A1000682D862D0E9428134D2D682D872D0E942C
:102A200028138394EFCFDF91CF911F910F91FF90E7
:102A3000EF90DF90CF90BF90AF909F908F907F905E
:102A40006F9008959093C5008093C40088E18093AF
:102A5000C100519A509808959091C00095FFFCCF05
:102A60008093C60080E090E008958091C00087FFC9
:102A7000FCCF8091C60008958091C00080780895B1
:102A8000CF93DF93EC018991882319F00E942C15D4
:102A9000FACFDF91CF910895CF93C82F82958F7091
:102AA0008A3010F4805D01C0895A0E942C158C2F49
:102AB0008F70282F30E02A30310514F4805D01C07A
:102AC000895ACF910C942C15CF93C82F892F0E942F
:102AD0004C158C2FCF910C944C15CF92DF92EF9226
:102AE000FF926B017C01C7010E946415C601FF9033
:102AF000EF90DF90CF900C946415AF92BF92CF927D
:102B0000DF92EF92FF920F931F93CF93DF931F9269
:102B1000CDB7DEB77C0105E010E020E080E1A82E13
:102B200087E2B82E9AE0C92ED12CC701B5010E94C8
:102B3000D71F611106C0211104C081E0A816B1049D
:102B400039F480E3860F69830E942C1521E06981A6
:102B50006A9DC0016B9D900D1124E81AF90AC50108
:102B6000B6010E94D71F5B01015011090115110523
:102B7000E1F60F90DF91CF911F910F91FF90EF90B1
:102B8000DF90CF90BF90AF900895AF92BF92DF9249
:102B9000EF92FF920F931F93CF93DF931F92CDB7C6
:102BA000DEB7D82E87FF04C08DE20E942C15D19489
:102BB00003E010E020E034E6A32EB12C4AE0E42E3E
:102BC000F12C8D2D992787FD9095B5010E94D71F77
:102BD000161634F0211104C081E0A816B10439F4AE
:102BE00080E3860F69830E942C1521E069816A9D2C
:102BF000D0181124C501B7010E94D71F5B010150F5
:102C0000110901151105E9F60F90DF91CF911F9180
:102C10000F91FF90EF90DF90BF90AF9008952F92AB
:102C20003F924F925F926F927F928F929F92AF925C
:102C3000BF92CF92DF92EF92FF921F93CF93DF93D9
:102C40001F92CDB7DEB74B015C015AE0252E312C27
:102C500010E0C12C6AECD62E6AE9E62E6BE3F62E64
:102C60007AE0472E512C612C712CC501B401A701CB
:102C700096010E94FF1F211108C0111106C081E0BA
:102C8000C816D104E104F10439F480E3820F2983EA
:102C90000E942C1511E02981A22FB0E0A701960116
:102CA0000E94C01F861A970AA80AB90AC701B6016E
:102CB000A30192010E94FF1F69017A01E1E02E1A2F
:102CC00031082114310489F60F90DF91CF911F91C3
:102CD000FF90EF90DF90CF90BF90AF909F908F903C
:102CE0007F906F905F904F903F902F90089520EAD3
:102CF0003FE0882329F0F9013197F1F78150F9CFAE
:102D0000089520EA3FE0009729F0F9013197F1F7A3
:102D10000197F9CF0895CF93C82FCC2331F088EED7
:102D200093E00E948116C150F8CFCF9108950F9380
:102D30001F939B01AC01E091CE05F091CF0522508D
:102D400031094109510986819781A085B185029792
:102D5000A109B109281739074A075B0768F4A2815E
:102D6000B0E00E94C01F0289138924893589600F51
:102D7000711F821F931F03C060E070E0CB011F91A1
:102D80000F9108950F931F93CF93DF93EC01E09180
:102D9000CE05F091CF05198218826C817D818E81DC
:102DA0009F81613071058105910559F10681178177
:102DB00020853185601771078207930710F561152B
:102DC00071058105910539F42081233021F4668550
:102DD000778580899189688779878A879B8761153C
:102DE00071058105910519F00E94971604C066854A
:102DF0007785808991896C877D878E879F8780E022
:102E000001C081E0DF91CF911F910F9108950F9341
:102E10001F93CF93DF9300D000D0CDB7DEB7E09102
:102E2000CE05F091CF05623071058105910508F45A
:102E300068C0068117812085318560177107820778
:102E4000930708F05EC02081223019F0233011F181
:102E500058C09B013327220F331F472F582F692F4C
:102E6000772782859385A485B585480F591F6A1FEA
:102E70007B1F02E010E0CE0101960E94090B811138
:102E800040C06A8170E0762F66278981682B80E0D8
:102E900090E03BC09B012F773327220F331F220F77
:102EA000331FAB01BC01A7E0769567955795479511
:102EB000AA95D1F782859385A485B585480F591FBA
:102EC0006A1F7B1F04E010E0CE0101960E94090BEF
:102ED000811117C02C816B81862F90E0A0E0B0E0BB
:102EE00077276627922B2981622B0A8110E0102F09
:102EF000002720E030E0602B712B822B932B9F70FA
:102F000004C061E070E080E090E00F900F900F90BF
:102F10000F90DF91CF911F910F910895CF92DF9283
:102F2000EF92FF920F931F93CF93DF93EC016A010F
:102F30007B0102E010E02EEF31E00E94090B8111CD
:102F400033C0898190E0982F88272881822B85358E
:102F50009A4A61F526E330E0B701A601CE010E944E
:102F6000090B811109C0898190E0982F8827288159
:102F7000822B86349144E1F002E010E022E530E05B
:102F8000B701A601CE010E94090B81110BC0298156
:102F900030E0322F22278881282B81E026343144EB
:102FA00041F406C081E005C083E003C082E001C0B7
:102FB00080E0DF91CF911F910F91FF90EF90DF9014
:102FC000CF9008954F925F926F927F92AF92BF928F
:102FD000CF92DF92EF92FF920F931F93CF93DF93E5
:102FE000CDB7DEB7AC970FB6F894DEBF0FBECDBF3E
:102FF0005C011092CF051092CE05009709F43CC1F8
:103000000E944F0C80FD3AC140E050E0BA01CE0171
:1030100001960E948E17813081F500E110E02EEBC1
:1030200031E040E050E0BA01CE0101960E94090B68
:10303000882311F081E023C18D81811102C087E0D6
:103040001EC18C854B84512C612C712C320155246E
:103050004424782A8985482A8A8590E0982F8827F1
:10306000A0E0B0E0482A592A6A2A7B2AB301A201CB
:10307000CE0101960E948E1703C0412C512C3201C3
:103080008330C1F28111DBCF04E210E02DE030E0AB
:10309000B301A201CE0101960E94090B8111CACF92
:1030A0002B8530E0322F22278A85282B40E050E004
:1030B0002115310541055105A9F48B8D2A8D422F2B
:1030C00050E060E070E033272227582B888D282BB2
:1030D000898D90E0982F8827A0E0B0E0282B392B2D
:1030E0004A2B5B2BAC81B0E00E94C01F6B017C01BE
:1030F0000B8110E0102F00278A81082B980140E0F7
:1031000050E029A73AA74BA75CA7420E531E641EA6
:10311000751ED5011A964D925D926D927C921D9707
:10312000E9811296EC9312976E8170E0762F6627F4
:103130008D81682B15967C936E931497888590E00B
:10314000982F88274F81842BA0E0B0E00097A1053D
:10315000B105B1F44F898E8990E0A0E0B0E0DC01C8
:1031600099278827B42B4C89842B4D8950E0542F04
:1031700044278A0120E030E0802B912BA22BB32B37
:10318000F4E076956795FA95E1F78B0120E030E061
:103190000DA31EA32FA338A7BC01CD0129A53AA5D5
:1031A0004BA55CA5621B730B840B950B6C197D09F9
:1031B0008E099F090DA11EA12FA138A5601B710BBF
:1031C000820B930B2E2F30E040E050E00E94FF1F57
:1031D0002E5F3F4F4F4F5F4FD50116962D933D9376
:1031E0004D935C931997273FBFE03B07410551057D
:1031F00008F425CF273F3F4F4105510510F482E0E9
:1032000001C083E0D5018C938330B1F42BA18AA156
:1032100090E0A0E0B0E0DC0199278827B22B28A13C
:10322000822B49A150E0542F442760E070E0842BAA
:10323000952BA62BB72B06C0D701C601840D951D73
:10324000A61DB71DF50186879787A08BB18B0DA1B1
:103250001EA12FA138A5400E511E621E731E4C0CDC
:103260005D1C6E1C7F1C428A538A648A758A118297
:10327000B092CF05A092CE0580E001C082E0AC966E
:103280000FB6F894DEBF0FBECDBFDF91CF911F9177
:103290000F91FF90EF90DF90CF90BF90AF907F9015
:1032A0006F905F904F9008957F928F929F92AF9210
:1032B000BF92CF92DF92EF92FF920F931F93CF9323
:1032C000DF93CDB7DEB7EC970FB6F894DEBF0FBE35
:1032D000CDBFC090CE05D090CF05C114D10409F464
:1032E00040C1D60111961C929E012F5C3F4F3CA31A
:1032F0002BA39C017901F90180812F5F3F4F803220
:10330000C9F38F3209F479011DA21EA21FA218A6CB
:10331000D7018C91813248F4CE0181960E94C21669
:103320001982882309F4D9C049C110E2712E4E01D7
:10333000BCE08B0E911CEBA1FCA1DF01CF010B9631
:10334000A817B90711F07D92FBCF90E080E028E04C
:1033500031E0380FD701A80FB11D8C91813298F060
:103360008F3289F08E3209F400C1921760F44FE970
:10337000480F4A3108F48052DF01A90FB11D8C9328
:103380009F5F832FE5CFE30EF11C91E0813208F0BF
:1033900090E09387CE0181960E94C21681118EC063
:1033A00029A13AA12F703327B5E0220F331FBA9518
:1033B000E1F74DA55EA56FA578A900E210E0CE016A
:1033C00001960E94090B8111F6C08981882309F4B6
:1033D00078C02C8523FD0FC06BA17CA1FE01319626
:1033E000CB01E815F90509F473C04191DC013D9169
:1033F000CD014317B1F3A090CE05B090CF0509A140
:103400001AA10F5F1F4F0115110509F456C08DA5B4
:103410009EA5AFA5B8A90097A105B10509F44DC0B7
:1034200098012F703327232B09F044C00196A11D6A
:10343000B11D8DA79EA7AFA7B8AB69A57AA58BA52F
:103440009CA5611571058105910539F4F50184810B
:1034500095810817190788F52DC0D50112962C9172
:10346000422F50E0415051099801A4E0369527952C
:10347000AA95E1F742235323452BE1F40E94071755
:10348000623071058105910508F475C0F50126814A
:10349000378140855185621773078407950768F463
:1034A00069A77AA78BA79CA70E9497166DA77EA7EE
:1034B0008FA798AB1AA309A373CF83E0833009F0D9
:1034C0007DC0EBA1FCA18385882309F476C04BC0A5
:1034D000FB018385882309F450C08981882309F47E
:1034E00042C08C8584FD3FC08E8990E0982F88274C
:1034F0002D89822BA0E0B0E0DC01992788274C8D34
:1035000050E0542F44272B8D422B60E070E0842B39
:10351000952BA62BB72BF601868F978FA0A3B1A36F
:1035200028A18F8D90E0A0E0B0E0DC0199278827EA
:10353000B22B2D8D822B4E8D50E0542F442760E00E
:1035400070E0842B952BA62BB72B828F938FA48FA3
:10355000B58F168A178A108E118E81E0818380E0E4
:103560002DC086E02BC083E029C0283009F00BCFA6
:1035700098E02BE006CF81E0A1CF24FF1EC08E890A
:1035800090E0982F88272D89822BA0E0B0E0DC0105
:10359000992788274C8D50E0542F44272B8D422BA0
:1035A00060E070E0842B952BA62BB72B8DA39EA3F8
:1035B000AFA3B8A7C0CE81E001C084E0EC960FB6FF
:1035C000F894DEBF0FBECDBFDF91CF911F910F9159
:1035D000FF90EF90DF90CF90BF90AF909F908F9033
:1035E0007F9008954F925F926F927F928F929F92F9
:1035F000AF92BF92CF92DF92EF92FF920F931F9301
:10360000CF93DF934C017B015A01C091CE05D0913D
:10361000CF05FA0111821082209709F4A1C0898197
:1036200080FFA0C08A8D9B8DAC8DBD8D4E895F893A
:10363000688D798D841B950BA60BB70BA70160E0F5
:1036400070E084179507A607B70708F47C013401DA
:10365000412C82E0582EE114F10409F47CC08E89DB
:103660009F89A88DB98DAC01BD0151706627772760
:10367000452B462B472BE1F5DA80DA94AC01BD01EE
:1036800009E076956795579547950A95D1F7D42225
:10369000C9F4892B8A2B8B2B29F46E8D7F8D88A101
:1036A00099A106C06AA17BA18CA19DA10E940717C8
:1036B000623071058105910508F44FC06AA37BA3B0
:1036C0008CA39DA36AA17BA18CA19DA10E949716AA
:1036D000611571058105910509F43FC0DC01CB013D
:1036E0008D0D911DA11DB11D8EA39FA3A8A7B9A7E4
:1036F0002E893F893170C201821B930B67018E15A1
:103700009F0508F46C014EA15FA168A579A58114FD
:10371000910419F480E090E001C0C30186010E9489
:10372000090B81111AC08E899F89A88DB98D8C0DC6
:103730009D1DA11DB11D8E8B9F8BA88FB98F6C0C09
:103740007D1CEC18FD08F501808191818C0D9D1D7B
:103750009183808380CF80E006C0198281E003C01E
:1037600086E001C085E0DF91CF911F910F91FF901E
:10377000EF90DF90CF90BF90AF909F908F907F9011
:103780006F905F904F9008954F925F926F927F92EB
:103790008F929F92AF92BF92CF92DF92EF92FF9261
:1037A0000F931F93CF93DF936C018B015A01C0914C
:1037B000CE05D091CF05FA0111821082209709F42D
:1037C000CFC0898180FFCEC080746115710581F4FE
:1037D000811104C089818F7B8983BDC040E050E0A6
:1037E000BA0180E090E00E94AD0B8111B6C0F2CF2B
:1037F00081110AC08E899F89A88DB98D88279E7FE7
:103800008E8B9F8BA88FB98F8A8D9B8DAC8DBD8D34
:103810004E895F89688D798D841B950BA60BB70B3C
:10382000A80160E070E084179507A607B70708F4C1
:103830008C01812C32E0932E0115110509F48BC007
:103840008E899F89A88DB98D9C013170232B09F039
:1038500045C0FA80FA94AC01BD0129E076956795E0
:10386000579547952A95D1F7F422C9F4892B8A2BCD
:103870008B2B29F46E8D7F8D88A199A106C06AA13A
:103880007BA18CA19DA10E94071762307105810563
:10389000910508F462C06AA37BA38CA39DA36AA1CF
:1038A0007BA18CA19DA10E949716611571058105D0
:1038B000910509F452C0AB01BC014F0D511D611DB2
:1038C000711D4EA35FA368A779A780E090E00E94D6
:1038D000AD0B811142C08981806489838E899F8963
:1038E00091709401281B390B78012017310708F4D7
:1038F00079012701612C712CB301A201C6010E943C
:10390000AD0B81112AC08E899F89A88DB98D840D38
:10391000951DA61DB71D8E8B9F8BA88FB98FCE0CC2
:10392000DF1C0E191F09F501208131812E0D3F1D6D
:10393000318320839170892B09F07ECF40E050E0E5
:10394000BA0180E090E00E94AD0B811106C0898130
:103950008F7B898371CF80E006C0198281E003C02C
:1039600086E001C085E0DF91CF911F910F91FF901C
:10397000EF90DF90CF90BF90AF909F908F907F900F
:103980006F905F904F900895CF93DF931F92CDB7C4
:10399000DEB7A89588E10FB6F89480936000109286
:1039A00060000FBE81E0809381000E94260880EEB7
:1039B00095E00E94A3070E949307109281008091D6
:1039C0008400909185000E9474200E9427078AE05D
:1039D0000E948D061FE028E2D22E06E434E0F32E8A
:1039E00042E0E42E5EE4C52E10923F061092E905F7
:1039F00081E08093E8058FE38093D00580E00E940A
:103A0000CC0AA12C8FE3982E8824839493E4B92EBA
:103A10000E9493078B3139F09091D0058F3759F080
:103A20008D3081F51DC01092E90510923F069092ED
:103A3000D005A12C5DC0AA2011F0AA940AC0209143
:103A40003F06222331F0963441F010923F068092D7
:103A5000E805963411F0A11046C09092D00543C0FD
:103A60009E3609F4F7C09F3409F4F4C090913F06E4
:103A7000992329F09091E905992309F4EBC000936B
:103A8000D00536C09634A1F12091090623FF04C069
:103A9000913411F0933561F59BE19A1548F1AA2014
:103AA000E1F02A2D30E08D3371F4F901E851FA4F3D
:103AB00090819E3319F4AA948AE10FC09C3369F473
:103AC000AA948BE10AC08E3341F4F901E851FA4F10
:103AD00090819C3311F4AA948DE1EA2DF0E0E75136
:103AE000FA4F8083A394EA2DF0E0E751FA4F108259
:103AF0009091E905992309F4A0C020913F06211176
:103B00002CC090539A3048F5803289F489EE95E0C4
:103B10000E94B321009709F490C080933F06B092B1
:103B2000D0051092E905E092E805A12C86C0EA2DA7
:103B3000F0E0E851FA4F808180538A3058F489EEE2
:103B400095E00E94B3218F3F910509F01CF4C092CB
:103B5000D00573C00093D00570C09091EA059923F9
:103B600021F09091D005933469F40E94F8098823DC
:103B700031F0EA2DF0E0E851FA4F808343C0009322
:103B8000D00540C0977F953409F03CC0F092E8051D
:103B90000E94F8098823A1F1AA2DB0E0A751BA4FDD
:103BA000FD01319780831092D3051092D20590E0E9
:103BB000199F90011124F901E451FC4FE491EE2387
:103BC00079F041E0490FE81309C0909308062351AA
:103BD0003C4F3093D3052093D20504C0942FE8CFF7
:103BE00090930806E091D205F091D305E491EE237D
:103BF00039F0DC92A394EA2DF0E0E751FA4F1082FD
:103C0000E092E80589EE95E00E94500D9091D00574
:103C1000963449F0EA2DF0E0E851FA4F9081903265
:103C200061F4833551F0AA94EA2DF0E0E751FA4FA0
:103C30001082A11002C09092D0058091D0058634E8
:103C400029F460E082E390E00E942B078A2D0E9415
:103C5000CC0ADECE0E941F078091E905833B09F460
:103C60005EC198F4803B71F138F4811166C1809196
:103C70003F060E94E1086DC1813B09F460C0823BB0
:103C800009F05BC10E94810964C1873B09F436C118
:103C900090F4853B09F438C1863B09F04EC10E947F
:103CA00070080E949C068AE30E948D0680EB94E0D7
:103CB0000E949C064EC1883B09F423C18A3B09F44B
:103CC00073C03BC10E9474098091BA059091BB05F5
:103CD0009093B9058093B80571E0A090B805B090B5
:103CE000B905A114B10419F1723058F4B5016D5F32
:103CF0007F4F89EE95E00E94D921F5018281809362
:103D00003F060E943210782F81110AC0E091B80559
:103D1000F091B905808191819093B9058093B805A0
:103D200079830E94050779818B31B9F678E080911B
:103D30003F0690E079830E949C0679810BC10E9426
:103D400027078AEE95E09093D3058093D2051092D1
:103D500008060E94031061E00E94CB089093B90509
:103D60008093B80570E02091B8053091B905232BF8
:103D700009F4F0C060E080E090E00E94380A8AE038
:103D80000E948D060E94CD11782F883011F478E0C2
:103D9000E1C0E091B805F091B905208131813093FF
:103DA000B9052093B805DFCF0E9427078091EA0567
:103DB000863629F4F092E80561E08BE005C083E0E7
:103DC0008093E80561E08AE00E9459088AE00E9439
:103DD0008D061092080610923F0670E040913F0653
:103DE00050E09A01220F331F240F351FF901EE56C0
:103DF000FC4FB490BB2009F4ADC0F901EF56FC4F65
:103E000024918091E805282309F472C08CE30E9474
:103E10008D0680913F0690E0FC01EE0FFF1FE80F3A
:103E2000F91FE057FC4F84910E948D068EE30E949B
:103E30008D0680E20E948D0680913F0690E0FC0195
:103E4000EE0FFF1FE80FF91FEF56FC4FE491E4FF60
:103E500004C061E08DE00E945908B092E90510921B
:103E6000EA056FEF89EE95E00E94380A2091E80597
:103E700090E0243061F4189F9001199F300D1124B7
:103E800023513C4F3093D3052093D20521C0189F76
:103E90009001199F300D1124275D3B4F3093D305BE
:103EA0002093D205E091D205F091D3058491882327
:103EB000B1F090EF980F903178F40E94230A80912E
:103EC000D2059091D30501969093D3058093D205A6
:103ED00080E20E948D06E6CF0E948D06F0CF8AE038
:103EE0000E948D060E94CD11782F883009F44FCFA3
:103EF00080913F068F5F80933F0670CF0E94270717
:103F000028C00E94740925C040E062E28BEE95E073
:103F10000E9495098BEE95E00E94010D0CC00E9455
:103F2000810940E062E28BEE95E00E9495098BEEFC
:103F300095E00E94C606782F0DC080913F060E9432
:103F4000ED0A60E080E090E00E94380A8AE00E947A
:103F50008D0670E061E0872F0E9459080E94930748
:103F600043CDA29FB001B39FC001A39F700D811DDF
:103F70001124911DB29F700D811D1124911D089572
:103F80000E94B11FA59F900DB49F900DA49F800D1E
:103F9000911D11240895991B79E004C0991F96176B
:103FA00008F0961B881F7A95C9F780950895AA1B7B
:103FB000BB1B51E107C0AA1FBB1FA617B70710F014
:103FC000A61BB70B881F991F5A95A9F78095909546
:103FD000BC01CD01089597FB072E16F4009407D07D
:103FE00077FD09D00E94D71F07FC05D03EF49095BD
:103FF00081959F4F0895709561957F4F0895A1E237
:104000001A2EAA1BBB1BFD010DC0AA1FBB1FEE1F52
:10401000FF1FA217B307E407F50720F0A21BB30B9D
:10402000E40BF50B661F771F881F991F1A9469F719
:1040300060957095809590959B01AC01BD01CF0175
:1040400008958F929F92AF92BF92CF92DF92EF929C
:10405000FF92CF93DF93EC01688179818A819B8104
:10406000611571058105910521F464E279ED8BE517
:1040700097E02DE133EF41E050E00E949D2449019B
:104080005A019B01AC01A7EAB1E40E94C01F6B0179
:104090007C01ACEEB4EFA50194010E948824C60E09
:1040A000D71EE81EF91EF7FE06C081E0C81AD10827
:1040B000E10880E8F80AC882D982EA82FB82C60158
:1040C0009F77DF91CF91FF90EF90DF90CF90BF90DF
:1040D000AF909F908F9008950E942120089580E0D6
:1040E00091E00E9421200895A0E0B0E080930001BB
:1040F00090930101A0930201B093030108952F92C0
:104100003F925F926F927F928F929F92AF92BF92F7
:10411000CF92DF92EF92FF920F931F93CF93DF9393
:104120008B01EA016115710521F0DB018C93119679
:104130009C93209739F09E0122503109233231059A
:1041400008F0FBC07C016701BFEFCB1ADB0A560108
:10415000F7016080862D90E00E94D121892B11F01B
:104160007601F1CFFDE26F120AC0570182E0A80E7E
:10417000B11CD70111966C90772473940BC0BBE2ED
:104180006B1207C05701E2E0AE0EB11CD7011196C9
:104190006C90712CCE018F7E892B89F4B0E36B1269
:1041A00022C0F50180818F7D883541F56180F2E084
:1041B000AF0EB11C872D8260782EC0E1D0E0C830F0
:1041C000D105F1F04CF4C230D10511F5C12CD12C40
:1041D000E12CB0E4FB2E2FC0CA30D10531F0C03144
:1041E000D10521F115C0209751F7CAE0D0E0ACEC21
:1041F000CA2EDC2CEC2CACE0FA2E1DC02097F9F670
:10420000C8E0D0E0C12CD12CE12CF0E1FF2E13C08E
:1042100060E070E080E090E89E01442737FD409523
:10422000542F0E94FF1F69017A0105C0C12CD12CB7
:10423000E12CE8E0FE2EF50160E020E030E0A9018D
:104240004E01AA2497FCA094BA2C1F0170ED572EA2
:10425000560CA9E0A51570F48FEB860D8A3118F481
:1042600099EC592E06C08FE9860D8A3130F589EA1E
:10427000582E560C852D90E08C179D07F4F467FDA1
:1042800018C0C216D306E406F50680F0C501B401D5
:104290000E948D249B01AC01250D311D411D511D36
:1042A000213031054105B0E85B0710F06FEF01C028
:1042B00061E03196D1016C90C8CF872D81700115D6
:1042C000110571F0662329F03197D801ED93FC9325
:1042D00007C071FE19C03297D801ED93FC9314C04A
:1042E00067FF12C0882329F020E030E040E050E86A
:1042F00004C02FEF3FEF4FEF5FE782E290E0909333
:104300006A068093690616C0882341F0509540954F
:10431000309521953F4F4F4F5F4F0CC057FF0AC05C
:1043200082E290E090936A06809369062FEF3FEF58
:104330004FEF5FE7B901CA0104C060E070E080E0C0
:1043400090E0DF91CF911F910F91FF90EF90DF9060
:10435000CF90BF90AF909F908F907F906F905F9025
:104360003F902F900895FC0188279927E894219188
:104370002032E9F3293010F02E30C8F32B3241F00F
:104380002D3239F4689404C00E94E021820F911DFF
:10439000219120532A30C0F31EF4909581959F4FB0
:1043A0000895911109C2803219F089508550D0F7D3
:1043B0000895FB01DC0101900D920020E1F70895C2
:1043C0007AE0979F902D879F802D910D112408955D
:1043D000AEE0B0E0EEEEF1E20C94CA240D891E8945
:1043E00086E08C831A8309838FEF9FE79E838D83FA
:1043F000AE01475E5F4F6F89788DCE0101960E94B6
:104400000A22EF81F885E00FF11F10822E96E4E07A
:104410000C94E624ACE0B0E0E0E1F2E20C94BC24C1
:104420007C016B018A01FC0117821682838181FF66
:10443000BDC1CE0101964C01F7019381F60193FDB8
:10444000859193FF81916F01882309F4ABC1853277
:1044500039F493FD859193FF81916F01853229F4A1
:10446000B70190E00E94F523E7CF512C312C20E0DA
:104470002032A0F48B3269F030F4803259F083326C
:1044800069F420612CC08D3239F0803339F4216019
:1044900026C02260246023C0286021C027FD27C0D9
:1044A00030ED380F3A3078F426FF06C0FAE05F9E10
:1044B000300D1124532E13C08AE0389E300D112484
:1044C000332E20620CC08E3221F426FD6BC1206495
:1044D00006C08C3611F4206802C0883641F4F6011B
:1044E00093FD859193FF81916F018111C1CF982F29
:1044F0009F7D9554933028F40C5F1F4FFFE3F983A1
:104500000DC0833631F0833771F0833509F05BC01D
:1045100022C0F801808189830E5F1F4F4424439499
:10452000512C540115C03801F2E06F0E711CF801D6
:10453000A080B18026FF03C0652D70E002C06FEF40
:104540007FEFC5012C870E94EA232C0183012C8573
:104550002F77222E17C03801F2E06F0E711CF80180
:10456000A080B18026FF03C0652D70E002C06FEF10
:104570007FEFC5012C870E94DF232C012C8520684A
:10458000222E830123FC1BC0832D90E04816590680
:10459000B0F4B70180E290E00E94F5233A94F4CFA2
:1045A000F50127FC859127FE81915F01B70190E01D
:1045B0000E94F52331103A94F1E04F1A510841144A
:1045C000510471F7E5C0843611F0893639F5F801E8
:1045D00027FF07C060817181828193810C5F1F4F2B
:1045E00008C060817181882777FD8095982F0E5FC4
:1045F0001F4F2F76B22E97FF09C09095809570952A
:1046000061957F4F8F4F9F4F2068B22E2AE030E098
:10461000A4010E942724A82EA81844C0853729F495
:104620002F7EB22E2AE030E025C0F22FF97FBF2E78
:104630008F36C1F018F4883579F0B4C0803719F09E
:10464000883721F0AFC02F2F2061B22EB4FE0DC0ED
:104650008B2D8460B82E09C024FF0AC09F2F96605E
:10466000B92E06C028E030E005C020E130E002C0ED
:1046700020E132E0F801B7FE07C0608171818281DC
:1046800093810C5F1F4F06C06081718180E090E0D4
:104690000E5F1F4FA4010E942724A82EA818FB2DEF
:1046A000FF77BF2EB6FE0BC02B2D2E7FA51450F426
:1046B000B4FE0AC0B2FC08C02B2D2E7E05C07A2C99
:1046C0002B2D03C07A2C01C0752C24FF0DC0FE01D8
:1046D000EA0DF11D8081803311F4297E09C022FF8B
:1046E00006C07394739404C0822F867809F0739483
:1046F00023FD13C020FF06C05A2C731418F4530C6A
:104700005718732C731468F4B70180E290E02C877B
:104710000E94F52373942C85F5CF731410F4371889
:1047200001C0312C24FF12C0B70180E390E02C8738
:104730000E94F5232C8522FF17C021FF03C088E5C6
:1047400090E002C088E790E0B7010CC0822F867825
:1047500059F021FD02C080E201C08BE227FD8DE20D
:10476000B70190E00E94F523A51438F4B70180E367
:1047700090E00E94F5235A94F7CFAA94F401EA0D31
:10478000F11D8081B70190E00E94F523A110F5CFC3
:10479000332009F451CEB70180E290E00E94F52366
:1047A0003A94F6CFF7018681978102C08FEF9FEF91
:1047B0002C96E2E10C94D824992788270895FC01CF
:1047C0000590615070400110D8F7809590958E0F3C
:1047D0009F1F0895FC016150704001900110D8F7AF
:1047E000809590958E0F9F1F08950F931F93CF93E1
:1047F000DF93182F092FEB018B8181FD03C08FEF11
:104800009FEF20C082FF10C04E815F812C813D81CF
:10481000421753077CF4E881F9819F012F5F3F4FD6
:1048200039832883108306C0E885F985812F09958F
:10483000892B29F72E813F812F5F3F4F3F832E83A6
:10484000812F902FDF91CF911F910F910895FA0141
:10485000AA27283051F1203181F1E8946F936E7FBF
:104860006E5F7F4F8F4F9F4FAF4FB1E03ED0B4E0B0
:104870003CD0670F781F891F9A1FA11D680F791FF1
:104880008A1F911DA11D6A0F711D811D911DA11D02
:1048900020D009F468943F912AE0269F1124301912
:1048A000305D3193DEF6CF010895462F4770405DAD
:1048B0004193B3E00FD0C9F7F6CF462F4F70405D5C
:1048C0004A3318F0495D31FD4052419302D0A9F7B7
:1048D000EACFB4E0A6959795879577956795BA95B1
:1048E000C9F700976105710508959B01AC010A2E77
:1048F00006945795479537952795BA95C9F7620F4E
:10490000731F841F951FA01D0895B7FF0C94C01F2F
:104910000E94C01F821B930B0895DB018F939F930E
:104920000E94C01FBF91AF91A29F800D911DA39FB8
:10493000900DB29F900D11240895052E97FB1EF443
:1049400000940E94B42457FD07D00E94FF1F07FC6B
:1049500003D04EF40C94B424509540953095219595
:104960003F4F4F4F5F4F089590958095709561959B
:104970007F4F8F4F9F4F08952F923F924F925F929C
:104980006F927F928F929F92AF92BF92CF92DF925F
:10499000EF92FF920F931F93CF93DF93CDB7DEB7C4
:1049A000CA1BDB0B0FB6F894DEBF0FBECDBF099458
:1049B0002A88398848885F846E847D848C849B84AF
:1049C000AA84B984C884DF80EE80FD800C811B81BD
:1049D000AA81B981CE0FD11D0FB6F894DEBF0FBEEC
:0A49E000CDBFED010895F894FFCF5C
:0849EA0001000000256400003B
:00000001FF
